{
  "contractName": "Marketplace",
  "abi": [
    {
      "inputs": [],
      "stateMutability": "nonpayable",
      "type": "constructor"
    },
    {
      "anonymous": false,
      "inputs": [
        {
          "indexed": true,
          "internalType": "address",
          "name": "owner",
          "type": "address"
        },
        {
          "indexed": true,
          "internalType": "address",
          "name": "approved",
          "type": "address"
        },
        {
          "indexed": true,
          "internalType": "uint256",
          "name": "tokenId",
          "type": "uint256"
        }
      ],
      "name": "Approval",
      "type": "event"
    },
    {
      "anonymous": false,
      "inputs": [
        {
          "indexed": true,
          "internalType": "address",
          "name": "owner",
          "type": "address"
        },
        {
          "indexed": true,
          "internalType": "address",
          "name": "operator",
          "type": "address"
        },
        {
          "indexed": false,
          "internalType": "bool",
          "name": "approved",
          "type": "bool"
        }
      ],
      "name": "ApprovalForAll",
      "type": "event"
    },
    {
      "anonymous": false,
      "inputs": [
        {
          "indexed": true,
          "internalType": "address",
          "name": "from",
          "type": "address"
        },
        {
          "indexed": true,
          "internalType": "address",
          "name": "to",
          "type": "address"
        },
        {
          "indexed": true,
          "internalType": "uint256",
          "name": "tokenId",
          "type": "uint256"
        }
      ],
      "name": "Transfer",
      "type": "event"
    },
    {
      "inputs": [],
      "name": "NFTCounter",
      "outputs": [
        {
          "internalType": "uint256",
          "name": "",
          "type": "uint256"
        }
      ],
      "stateMutability": "view",
      "type": "function",
      "constant": true
    },
    {
      "inputs": [
        {
          "internalType": "uint256",
          "name": "",
          "type": "uint256"
        }
      ],
      "name": "allNFTs",
      "outputs": [
        {
          "internalType": "uint256",
          "name": "tokenId",
          "type": "uint256"
        },
        {
          "internalType": "string",
          "name": "tokenName",
          "type": "string"
        },
        {
          "internalType": "string",
          "name": "tokenURI",
          "type": "string"
        },
        {
          "internalType": "address payable",
          "name": "mintedBy",
          "type": "address"
        },
        {
          "internalType": "address payable",
          "name": "currentOwner",
          "type": "address"
        },
        {
          "internalType": "address payable",
          "name": "previousOwner",
          "type": "address"
        },
        {
          "internalType": "uint256",
          "name": "price",
          "type": "uint256"
        },
        {
          "internalType": "uint256",
          "name": "numberOfTransfers",
          "type": "uint256"
        },
        {
          "internalType": "bool",
          "name": "forSale",
          "type": "bool"
        }
      ],
      "stateMutability": "view",
      "type": "function",
      "constant": true
    },
    {
      "inputs": [
        {
          "internalType": "address",
          "name": "to",
          "type": "address"
        },
        {
          "internalType": "uint256",
          "name": "tokenId",
          "type": "uint256"
        }
      ],
      "name": "approve",
      "outputs": [],
      "stateMutability": "nonpayable",
      "type": "function"
    },
    {
      "inputs": [
        {
          "internalType": "address",
          "name": "owner",
          "type": "address"
        }
      ],
      "name": "balanceOf",
      "outputs": [
        {
          "internalType": "uint256",
          "name": "",
          "type": "uint256"
        }
      ],
      "stateMutability": "view",
      "type": "function",
      "constant": true
    },
    {
      "inputs": [],
      "name": "baseURI",
      "outputs": [
        {
          "internalType": "string",
          "name": "",
          "type": "string"
        }
      ],
      "stateMutability": "view",
      "type": "function",
      "constant": true
    },
    {
      "inputs": [],
      "name": "collectionName",
      "outputs": [
        {
          "internalType": "string",
          "name": "",
          "type": "string"
        }
      ],
      "stateMutability": "view",
      "type": "function",
      "constant": true
    },
    {
      "inputs": [],
      "name": "collectionNameSymbol",
      "outputs": [
        {
          "internalType": "string",
          "name": "",
          "type": "string"
        }
      ],
      "stateMutability": "view",
      "type": "function",
      "constant": true
    },
    {
      "inputs": [
        {
          "internalType": "uint256",
          "name": "tokenId",
          "type": "uint256"
        }
      ],
      "name": "getApproved",
      "outputs": [
        {
          "internalType": "address",
          "name": "",
          "type": "address"
        }
      ],
      "stateMutability": "view",
      "type": "function",
      "constant": true
    },
    {
      "inputs": [
        {
          "internalType": "address",
          "name": "owner",
          "type": "address"
        },
        {
          "internalType": "address",
          "name": "operator",
          "type": "address"
        }
      ],
      "name": "isApprovedForAll",
      "outputs": [
        {
          "internalType": "bool",
          "name": "",
          "type": "bool"
        }
      ],
      "stateMutability": "view",
      "type": "function",
      "constant": true
    },
    {
      "inputs": [],
      "name": "name",
      "outputs": [
        {
          "internalType": "string",
          "name": "",
          "type": "string"
        }
      ],
      "stateMutability": "view",
      "type": "function",
      "constant": true
    },
    {
      "inputs": [
        {
          "internalType": "uint256",
          "name": "tokenId",
          "type": "uint256"
        }
      ],
      "name": "ownerOf",
      "outputs": [
        {
          "internalType": "address",
          "name": "",
          "type": "address"
        }
      ],
      "stateMutability": "view",
      "type": "function",
      "constant": true
    },
    {
      "inputs": [
        {
          "internalType": "address",
          "name": "from",
          "type": "address"
        },
        {
          "internalType": "address",
          "name": "to",
          "type": "address"
        },
        {
          "internalType": "uint256",
          "name": "tokenId",
          "type": "uint256"
        }
      ],
      "name": "safeTransferFrom",
      "outputs": [],
      "stateMutability": "nonpayable",
      "type": "function"
    },
    {
      "inputs": [
        {
          "internalType": "address",
          "name": "from",
          "type": "address"
        },
        {
          "internalType": "address",
          "name": "to",
          "type": "address"
        },
        {
          "internalType": "uint256",
          "name": "tokenId",
          "type": "uint256"
        },
        {
          "internalType": "bytes",
          "name": "_data",
          "type": "bytes"
        }
      ],
      "name": "safeTransferFrom",
      "outputs": [],
      "stateMutability": "nonpayable",
      "type": "function"
    },
    {
      "inputs": [
        {
          "internalType": "address",
          "name": "operator",
          "type": "address"
        },
        {
          "internalType": "bool",
          "name": "approved",
          "type": "bool"
        }
      ],
      "name": "setApprovalForAll",
      "outputs": [],
      "stateMutability": "nonpayable",
      "type": "function"
    },
    {
      "inputs": [
        {
          "internalType": "bytes4",
          "name": "interfaceId",
          "type": "bytes4"
        }
      ],
      "name": "supportsInterface",
      "outputs": [
        {
          "internalType": "bool",
          "name": "",
          "type": "bool"
        }
      ],
      "stateMutability": "view",
      "type": "function",
      "constant": true
    },
    {
      "inputs": [],
      "name": "symbol",
      "outputs": [
        {
          "internalType": "string",
          "name": "",
          "type": "string"
        }
      ],
      "stateMutability": "view",
      "type": "function",
      "constant": true
    },
    {
      "inputs": [
        {
          "internalType": "uint256",
          "name": "index",
          "type": "uint256"
        }
      ],
      "name": "tokenByIndex",
      "outputs": [
        {
          "internalType": "uint256",
          "name": "",
          "type": "uint256"
        }
      ],
      "stateMutability": "view",
      "type": "function",
      "constant": true
    },
    {
      "inputs": [
        {
          "internalType": "string",
          "name": "",
          "type": "string"
        }
      ],
      "name": "tokenImageExists",
      "outputs": [
        {
          "internalType": "bool",
          "name": "",
          "type": "bool"
        }
      ],
      "stateMutability": "view",
      "type": "function",
      "constant": true
    },
    {
      "inputs": [
        {
          "internalType": "string",
          "name": "",
          "type": "string"
        }
      ],
      "name": "tokenNameExists",
      "outputs": [
        {
          "internalType": "bool",
          "name": "",
          "type": "bool"
        }
      ],
      "stateMutability": "view",
      "type": "function",
      "constant": true
    },
    {
      "inputs": [
        {
          "internalType": "address",
          "name": "owner",
          "type": "address"
        },
        {
          "internalType": "uint256",
          "name": "index",
          "type": "uint256"
        }
      ],
      "name": "tokenOfOwnerByIndex",
      "outputs": [
        {
          "internalType": "uint256",
          "name": "",
          "type": "uint256"
        }
      ],
      "stateMutability": "view",
      "type": "function",
      "constant": true
    },
    {
      "inputs": [
        {
          "internalType": "uint256",
          "name": "tokenId",
          "type": "uint256"
        }
      ],
      "name": "tokenURI",
      "outputs": [
        {
          "internalType": "string",
          "name": "",
          "type": "string"
        }
      ],
      "stateMutability": "view",
      "type": "function",
      "constant": true
    },
    {
      "inputs": [
        {
          "internalType": "string",
          "name": "",
          "type": "string"
        }
      ],
      "name": "tokenURIExists",
      "outputs": [
        {
          "internalType": "bool",
          "name": "",
          "type": "bool"
        }
      ],
      "stateMutability": "view",
      "type": "function",
      "constant": true
    },
    {
      "inputs": [],
      "name": "totalSupply",
      "outputs": [
        {
          "internalType": "uint256",
          "name": "",
          "type": "uint256"
        }
      ],
      "stateMutability": "view",
      "type": "function",
      "constant": true
    },
    {
      "inputs": [
        {
          "internalType": "address",
          "name": "from",
          "type": "address"
        },
        {
          "internalType": "address",
          "name": "to",
          "type": "address"
        },
        {
          "internalType": "uint256",
          "name": "tokenId",
          "type": "uint256"
        }
      ],
      "name": "transferFrom",
      "outputs": [],
      "stateMutability": "nonpayable",
      "type": "function"
    },
    {
      "inputs": [
        {
          "internalType": "string",
          "name": "_name",
          "type": "string"
        },
        {
          "internalType": "string",
          "name": "_tokenURI",
          "type": "string"
        },
        {
          "internalType": "uint256",
          "name": "_price",
          "type": "uint256"
        },
        {
          "internalType": "string",
          "name": "_imageHash",
          "type": "string"
        }
      ],
      "name": "mintNFT",
      "outputs": [],
      "stateMutability": "nonpayable",
      "type": "function"
    },
    {
      "inputs": [
        {
          "internalType": "uint256",
          "name": "_tokenId",
          "type": "uint256"
        }
      ],
      "name": "getTokenOwner",
      "outputs": [
        {
          "internalType": "address",
          "name": "",
          "type": "address"
        }
      ],
      "stateMutability": "view",
      "type": "function",
      "constant": true
    },
    {
      "inputs": [
        {
          "internalType": "uint256",
          "name": "_tokenId",
          "type": "uint256"
        }
      ],
      "name": "getTokenMetaData",
      "outputs": [
        {
          "internalType": "string",
          "name": "",
          "type": "string"
        }
      ],
      "stateMutability": "view",
      "type": "function",
      "constant": true
    },
    {
      "inputs": [],
      "name": "getNumberOfTokensMinted",
      "outputs": [
        {
          "internalType": "uint256",
          "name": "",
          "type": "uint256"
        }
      ],
      "stateMutability": "view",
      "type": "function",
      "constant": true
    },
    {
      "inputs": [
        {
          "internalType": "address",
          "name": "_owner",
          "type": "address"
        }
      ],
      "name": "getTotalNumberOfTokensOwnedByAnAddress",
      "outputs": [
        {
          "internalType": "uint256",
          "name": "",
          "type": "uint256"
        }
      ],
      "stateMutability": "view",
      "type": "function",
      "constant": true
    },
    {
      "inputs": [
        {
          "internalType": "uint256",
          "name": "_tokenId",
          "type": "uint256"
        }
      ],
      "name": "getTokenExists",
      "outputs": [
        {
          "internalType": "bool",
          "name": "",
          "type": "bool"
        }
      ],
      "stateMutability": "view",
      "type": "function",
      "constant": true
    },
    {
      "inputs": [
        {
          "internalType": "uint256",
          "name": "_tokenId",
          "type": "uint256"
        }
      ],
      "name": "buyToken",
      "outputs": [],
      "stateMutability": "payable",
      "type": "function",
      "payable": true
    },
    {
      "inputs": [
        {
          "internalType": "uint256",
          "name": "_tokenId",
          "type": "uint256"
        },
        {
          "internalType": "uint256",
          "name": "_newPrice",
          "type": "uint256"
        }
      ],
      "name": "changeTokenPrice",
      "outputs": [],
      "stateMutability": "nonpayable",
      "type": "function"
    },
    {
      "inputs": [
        {
          "internalType": "uint256",
          "name": "_tokenId",
          "type": "uint256"
        }
      ],
      "name": "toggleForSale",
      "outputs": [],
      "stateMutability": "nonpayable",
      "type": "function"
    }
  ],
  "bytecode": "0x60806040523480156200001157600080fd5b506040518060400160405280600e81526020017f4e465420436f6c6c656374696f6e0000000000000000000000000000000000008152506040518060400160405280600381526020017f4e46540000000000000000000000000000000000000000000000000000000000815250620000966301ffc9a760e01b6200016860201b60201c565b8160069080519060200190620000ae929190620003bd565b508060079080519060200190620000c7929190620003bd565b50620000e06380ac58cd60e01b6200016860201b60201c565b620000f8635b5e139f60e01b6200016860201b60201c565b6200011063780e9d6360e01b6200016860201b60201c565b5050620001226200027160201b60201c565b600a908051906020019062000139929190620003bd565b506200014a6200031760201b60201c565b600b908051906020019062000161929190620003bd565b5062000473565b63ffffffff60e01b817bffffffffffffffffffffffffffffffffffffffffffffffffffffffff1916141562000205576040517f08c379a000000000000000000000000000000000000000000000000000000000815260040180806020018281038252601c8152602001807f4552433136353a20696e76616c696420696e746572666163652069640000000081525060200191505060405180910390fd5b6001600080837bffffffffffffffffffffffffffffffffffffffffffffffffffffffff19167bffffffffffffffffffffffffffffffffffffffffffffffffffffffff1916815260200190815260200160002060006101000a81548160ff02191690831515021790555050565b606060068054600181600116156101000203166002900480601f0160208091040260200160405190810160405280929190818152602001828054600181600116156101000203166002900480156200030d5780601f10620002e1576101008083540402835291602001916200030d565b820191906000526020600020905b815481529060010190602001808311620002ef57829003601f168201915b5050505050905090565b606060078054600181600116156101000203166002900480601f016020809104026020016040519081016040528092919081815260200182805460018160011615610100020316600290048015620003b35780601f106200038757610100808354040283529160200191620003b3565b820191906000526020600020905b8154815290600101906020018083116200039557829003601f168201915b5050505050905090565b828054600181600116156101000203166002900490600052602060002090601f016020900481019282620003f5576000855562000441565b82601f106200041057805160ff191683800117855562000441565b8280016001018555821562000441579182015b828111156200044057825182559160200191906001019062000423565b5b50905062000450919062000454565b5090565b5b808211156200046f57600081600090555060010162000455565b5090565b6149f980620004836000396000f3fe6080604052600436106101ee5760003560e01c80636352211e1161010d578063a46b1fac116100a0578063bf162d671161006f578063bf162d6714610772578063c87b56dd146107b7578063cc151f3a146107f4578063e5326ab11461081f578063e985e9c51461084a576101ee565b8063a46b1fac146106a6578063a570c3aa146106e3578063a5cd761f1461070c578063b88d4fde14610749576101ee565b806370a08231116100dc57806370a08231146105ec57806395d89b4114610629578063a22cb46514610654578063a32018b91461067d576101ee565b80636352211e1461051c57806367c623cf146105595780636c0360eb146105965780636f9507f9146105c1576101ee565b80632d296bf11161018557806343d32ae71161015457806343d32ae71461044e5780634f6ccce71461048b5780635508d8e1146104c857806362e8e8ac146104f3576101ee565b80632d296bf11461038f5780632f745c59146103ab57806342842e0e146103e85780634390285014610411576101ee565b8063142687f3116101c1578063142687f3146102c157806317f445f1146102fe57806318160ddd1461033b57806323b872dd14610366576101ee565b806301ffc9a7146101f357806306fdde0314610230578063081812fc1461025b578063095ea7b314610298575b600080fd5b3480156101ff57600080fd5b5061021a60048036038101906102159190614216565b610887565b6040516102279190614468565b60405180910390f35b34801561023c57600080fd5b506102456108ee565b6040516102529190614483565b60405180910390f35b34801561026757600080fd5b50610282600480360381019061027d919061432b565b610990565b60405161028f919061444d565b60405180910390f35b3480156102a457600080fd5b506102bf60048036038101906102ba91906141da565b610a2b565b005b3480156102cd57600080fd5b506102e860048036038101906102e3919061432b565b610b6f565b6040516102f59190614468565b60405180910390f35b34801561030a57600080fd5b506103256004803603810190610320919061423f565b610b86565b6040516103329190614468565b60405180910390f35b34801561034757600080fd5b50610350610bbc565b60405161035d91906144a5565b60405180910390f35b34801561037257600080fd5b5061038d600480360381019061038891906140d4565b610bcd565b005b6103a960048036038101906103a4919061432b565b610c43565b005b3480156103b757600080fd5b506103d260048036038101906103cd91906141da565b61122e565b6040516103df91906144a5565b60405180910390f35b3480156103f457600080fd5b5061040f600480360381019061040a91906140d4565b611289565b005b34801561041d57600080fd5b506104386004803603810190610433919061406f565b6112a9565b60405161044591906144a5565b60405180910390f35b34801561045a57600080fd5b506104756004803603810190610470919061423f565b6112c0565b6040516104829190614468565b60405180910390f35b34801561049757600080fd5b506104b260048036038101906104ad919061432b565b6112f6565b6040516104bf91906144a5565b60405180910390f35b3480156104d457600080fd5b506104dd611319565b6040516104ea91906144a5565b60405180910390f35b3480156104ff57600080fd5b5061051a60048036038101906105159190614354565b61131f565b005b34801561052857600080fd5b50610543600480360381019061053e919061432b565b6117c7565b604051610550919061444d565b60405180910390f35b34801561056557600080fd5b50610580600480360381019061057b919061432b565b6117fe565b60405161058d9190614483565b60405180910390f35b3480156105a257600080fd5b506105ab611816565b6040516105b89190614483565b60405180910390f35b3480156105cd57600080fd5b506105d66118b8565b6040516105e39190614483565b60405180910390f35b3480156105f857600080fd5b50610613600480360381019061060e919061406f565b611956565b60405161062091906144a5565b60405180910390f35b34801561063557600080fd5b5061063e611a2b565b60405161064b9190614483565b60405180910390f35b34801561066057600080fd5b5061067b6004803603810190610676919061419e565b611acd565b005b34801561068957600080fd5b506106a4600480360381019061069f919061432b565b611c83565b005b3480156106b257600080fd5b506106cd60048036038101906106c8919061423f565b612155565b6040516106da9190614468565b60405180910390f35b3480156106ef57600080fd5b5061070a60048036038101906107059190614280565b61218b565b005b34801561071857600080fd5b50610733600480360381019061072e919061432b565b612546565b604051610740919061444d565b60405180910390f35b34801561075557600080fd5b50610770600480360381019061076b9190614123565b61255d565b005b34801561077e57600080fd5b506107996004803603810190610794919061432b565b6125d5565b6040516107ae999897969594939291906144c0565b60405180910390f35b3480156107c357600080fd5b506107de60048036038101906107d9919061432b565b6127c0565b6040516107eb9190614483565b60405180910390f35b34801561080057600080fd5b50610809612a91565b60405161081691906144a5565b60405180910390f35b34801561082b57600080fd5b50610834612aa5565b6040516108419190614483565b60405180910390f35b34801561085657600080fd5b50610871600480360381019061086c9190614098565b612b43565b60405161087e9190614468565b60405180910390f35b6000806000837bffffffffffffffffffffffffffffffffffffffffffffffffffffffff19167bffffffffffffffffffffffffffffffffffffffffffffffffffffffff1916815260200190815260200160002060009054906101000a900460ff169050919050565b606060068054600181600116156101000203166002900480601f0160208091040260200160405190810160405280929190818152602001828054600181600116156101000203166002900480156109865780601f1061095b57610100808354040283529160200191610986565b820191906000526020600020905b81548152906001019060200180831161096957829003601f168201915b5050505050905090565b600061099b82612bd7565b6109f0576040517f08c379a000000000000000000000000000000000000000000000000000000000815260040180806020018281038252602c8152602001806148c2602c913960400191505060405180910390fd5b6004600083815260200190815260200160002060009054906101000a900473ffffffffffffffffffffffffffffffffffffffff169050919050565b6000610a36826117c7565b90508073ffffffffffffffffffffffffffffffffffffffff168373ffffffffffffffffffffffffffffffffffffffff161415610abd576040517f08c379a00000000000000000000000000000000000000000000000000000000081526004018080602001828103825260218152602001806149726021913960400191505060405180910390fd5b8073ffffffffffffffffffffffffffffffffffffffff16610adc612bf4565b73ffffffffffffffffffffffffffffffffffffffff161480610b0b5750610b0a81610b05612bf4565b612b43565b5b610b60576040517f08c379a00000000000000000000000000000000000000000000000000000000081526004018080602001828103825260388152602001806148156038913960400191505060405180910390fd5b610b6a8383612bfc565b505050565b600080610b7b83612bd7565b905080915050919050565b600f818051602081018201805184825260208301602085012081835280955050505050506000915054906101000a900460ff1681565b6000610bc86002612cb5565b905090565b610bde610bd8612bf4565b82612cca565b610c33576040517f08c379a00000000000000000000000000000000000000000000000000000000081526004018080602001828103825260318152602001806149936031913960400191505060405180910390fd5b610c3e838383612dbe565b505050565b600073ffffffffffffffffffffffffffffffffffffffff163373ffffffffffffffffffffffffffffffffffffffff161415610c7d57600080fd5b610c8681612bd7565b610c8f57600080fd5b6000610c9a826117c7565b9050600073ffffffffffffffffffffffffffffffffffffffff168173ffffffffffffffffffffffffffffffffffffffff161415610cd657600080fd5b3373ffffffffffffffffffffffffffffffffffffffff168173ffffffffffffffffffffffffffffffffffffffff161415610d0f57600080fd5b6000600d60008481526020019081526020016000206040518061012001604052908160008201548152602001600182018054600181600116156101000203166002900480601f016020809104026020016040519081016040528092919081815260200182805460018160011615610100020316600290048015610dd35780601f10610da857610100808354040283529160200191610dd3565b820191906000526020600020905b815481529060010190602001808311610db657829003601f168201915b50505050508152602001600282018054600181600116156101000203166002900480601f016020809104026020016040519081016040528092919081815260200182805460018160011615610100020316600290048015610e755780601f10610e4a57610100808354040283529160200191610e75565b820191906000526020600020905b815481529060010190602001808311610e5857829003601f168201915b505050505081526020016003820160009054906101000a900473ffffffffffffffffffffffffffffffffffffffff1673ffffffffffffffffffffffffffffffffffffffff1673ffffffffffffffffffffffffffffffffffffffff1681526020016004820160009054906101000a900473ffffffffffffffffffffffffffffffffffffffff1673ffffffffffffffffffffffffffffffffffffffff1673ffffffffffffffffffffffffffffffffffffffff1681526020016005820160009054906101000a900473ffffffffffffffffffffffffffffffffffffffff1673ffffffffffffffffffffffffffffffffffffffff1673ffffffffffffffffffffffffffffffffffffffff16815260200160068201548152602001600782015481526020016008820160009054906101000a900460ff16151515158152505090508060c00151341015610fc257600080fd5b806101000151610fd157600080fd5b610fdc823385612dbe565b6000816080015190508073ffffffffffffffffffffffffffffffffffffffff166108fc349081150290604051600060405180830381858888f1935050505015801561102b573d6000803e3d6000fd5b5081608001518260a0019073ffffffffffffffffffffffffffffffffffffffff16908173ffffffffffffffffffffffffffffffffffffffff168152505033826080019073ffffffffffffffffffffffffffffffffffffffff16908173ffffffffffffffffffffffffffffffffffffffff168152505060018260e001818151019150818152505060008261010001901515908115158152505081600d60008681526020019081526020016000206000820151816000015560208201518160010190805190602001906110fd929190613ea0565b50604082015181600201908051906020019061111a929190613ea0565b5060608201518160030160006101000a81548173ffffffffffffffffffffffffffffffffffffffff021916908373ffffffffffffffffffffffffffffffffffffffff16021790555060808201518160040160006101000a81548173ffffffffffffffffffffffffffffffffffffffff021916908373ffffffffffffffffffffffffffffffffffffffff16021790555060a08201518160050160006101000a81548173ffffffffffffffffffffffffffffffffffffffff021916908373ffffffffffffffffffffffffffffffffffffffff16021790555060c0820151816006015560e082015181600701556101008201518160080160006101000a81548160ff02191690831515021790555090505050505050565b600061128182600160008673ffffffffffffffffffffffffffffffffffffffff1673ffffffffffffffffffffffffffffffffffffffff16815260200190815260200160002061300190919063ffffffff16565b905092915050565b6112a48383836040518060200160405280600081525061255d565b505050565b6000806112b583611956565b905080915050919050565b6010818051602081018201805184825260208301602085012081835280955050505050506000915054906101000a900460ff1681565b60008061130d83600261301b90919063ffffffff16565b50905080915050919050565b600c5481565b600073ffffffffffffffffffffffffffffffffffffffff163373ffffffffffffffffffffffffffffffffffffffff16141561135957600080fd5b61136282612bd7565b61136b57600080fd5b6000611376836117c7565b90503373ffffffffffffffffffffffffffffffffffffffff168173ffffffffffffffffffffffffffffffffffffffff16146113b057600080fd5b6000600d60008581526020019081526020016000206040518061012001604052908160008201548152602001600182018054600181600116156101000203166002900480601f0160208091040260200160405190810160405280929190818152602001828054600181600116156101000203166002900480156114745780601f1061144957610100808354040283529160200191611474565b820191906000526020600020905b81548152906001019060200180831161145757829003601f168201915b50505050508152602001600282018054600181600116156101000203166002900480601f0160208091040260200160405190810160405280929190818152602001828054600181600116156101000203166002900480156115165780601f106114eb57610100808354040283529160200191611516565b820191906000526020600020905b8154815290600101906020018083116114f957829003601f168201915b505050505081526020016003820160009054906101000a900473ffffffffffffffffffffffffffffffffffffffff1673ffffffffffffffffffffffffffffffffffffffff1673ffffffffffffffffffffffffffffffffffffffff1681526020016004820160009054906101000a900473ffffffffffffffffffffffffffffffffffffffff1673ffffffffffffffffffffffffffffffffffffffff1673ffffffffffffffffffffffffffffffffffffffff1681526020016005820160009054906101000a900473ffffffffffffffffffffffffffffffffffffffff1673ffffffffffffffffffffffffffffffffffffffff1673ffffffffffffffffffffffffffffffffffffffff16815260200160068201548152602001600782015481526020016008820160009054906101000a900460ff1615151515815250509050828160c001818152505080600d6000868152602001908152602001600020600082015181600001556020820151816001019080519060200190611696929190613ea0565b5060408201518160020190805190602001906116b3929190613ea0565b5060608201518160030160006101000a81548173ffffffffffffffffffffffffffffffffffffffff021916908373ffffffffffffffffffffffffffffffffffffffff16021790555060808201518160040160006101000a81548173ffffffffffffffffffffffffffffffffffffffff021916908373ffffffffffffffffffffffffffffffffffffffff16021790555060a08201518160050160006101000a81548173ffffffffffffffffffffffffffffffffffffffff021916908373ffffffffffffffffffffffffffffffffffffffff16021790555060c0820151816006015560e082015181600701556101008201518160080160006101000a81548160ff02191690831515021790555090505050505050565b60006117f7826040518060600160405280602981526020016148776029913960026130479092919063ffffffff16565b9050919050565b6060600061180b836127c0565b905080915050919050565b606060098054600181600116156101000203166002900480601f0160208091040260200160405190810160405280929190818152602001828054600181600116156101000203166002900480156118ae5780601f10611883576101008083540402835291602001916118ae565b820191906000526020600020905b81548152906001019060200180831161189157829003601f168201915b5050505050905090565b600b8054600181600116156101000203166002900480601f01602080910402602001604051908101604052809291908181526020018280546001816001161561010002031660029004801561194e5780601f106119235761010080835404028352916020019161194e565b820191906000526020600020905b81548152906001019060200180831161193157829003601f168201915b505050505081565b60008073ffffffffffffffffffffffffffffffffffffffff168273ffffffffffffffffffffffffffffffffffffffff1614156119dd576040517f08c379a000000000000000000000000000000000000000000000000000000000815260040180806020018281038252602a81526020018061484d602a913960400191505060405180910390fd5b611a24600160008473ffffffffffffffffffffffffffffffffffffffff1673ffffffffffffffffffffffffffffffffffffffff168152602001908152602001600020613066565b9050919050565b606060078054600181600116156101000203166002900480601f016020809104026020016040519081016040528092919081815260200182805460018160011615610100020316600290048015611ac35780601f10611a9857610100808354040283529160200191611ac3565b820191906000526020600020905b815481529060010190602001808311611aa657829003601f168201915b5050505050905090565b611ad5612bf4565b73ffffffffffffffffffffffffffffffffffffffff168273ffffffffffffffffffffffffffffffffffffffff161415611b76576040517f08c379a00000000000000000000000000000000000000000000000000000000081526004018080602001828103825260198152602001807f4552433732313a20617070726f766520746f2063616c6c65720000000000000081525060200191505060405180910390fd5b8060056000611b83612bf4565b73ffffffffffffffffffffffffffffffffffffffff1673ffffffffffffffffffffffffffffffffffffffff16815260200190815260200160002060008473ffffffffffffffffffffffffffffffffffffffff1673ffffffffffffffffffffffffffffffffffffffff16815260200190815260200160002060006101000a81548160ff0219169083151502179055508173ffffffffffffffffffffffffffffffffffffffff16611c30612bf4565b73ffffffffffffffffffffffffffffffffffffffff167f17307eab39ab6107e8899845ad3d59bd9653f200f220920489ca2b5937696c318360405180821515815260200191505060405180910390a35050565b600073ffffffffffffffffffffffffffffffffffffffff163373ffffffffffffffffffffffffffffffffffffffff161415611cbd57600080fd5b611cc681612bd7565b611ccf57600080fd5b6000611cda826117c7565b90503373ffffffffffffffffffffffffffffffffffffffff168173ffffffffffffffffffffffffffffffffffffffff1614611d1457600080fd5b6000600d60008481526020019081526020016000206040518061012001604052908160008201548152602001600182018054600181600116156101000203166002900480601f016020809104026020016040519081016040528092919081815260200182805460018160011615610100020316600290048015611dd85780601f10611dad57610100808354040283529160200191611dd8565b820191906000526020600020905b815481529060010190602001808311611dbb57829003601f168201915b50505050508152602001600282018054600181600116156101000203166002900480601f016020809104026020016040519081016040528092919081815260200182805460018160011615610100020316600290048015611e7a5780601f10611e4f57610100808354040283529160200191611e7a565b820191906000526020600020905b815481529060010190602001808311611e5d57829003601f168201915b505050505081526020016003820160009054906101000a900473ffffffffffffffffffffffffffffffffffffffff1673ffffffffffffffffffffffffffffffffffffffff1673ffffffffffffffffffffffffffffffffffffffff1681526020016004820160009054906101000a900473ffffffffffffffffffffffffffffffffffffffff1673ffffffffffffffffffffffffffffffffffffffff1673ffffffffffffffffffffffffffffffffffffffff1681526020016005820160009054906101000a900473ffffffffffffffffffffffffffffffffffffffff1673ffffffffffffffffffffffffffffffffffffffff1673ffffffffffffffffffffffffffffffffffffffff16815260200160068201548152602001600782015481526020016008820160009054906101000a900460ff161515151581525050905080610100015115611fd857600081610100019015159081151581525050611feb565b6001816101000190151590811515815250505b80600d6000858152602001908152602001600020600082015181600001556020820151816001019080519060200190612025929190613ea0565b506040820151816002019080519060200190612042929190613ea0565b5060608201518160030160006101000a81548173ffffffffffffffffffffffffffffffffffffffff021916908373ffffffffffffffffffffffffffffffffffffffff16021790555060808201518160040160006101000a81548173ffffffffffffffffffffffffffffffffffffffff021916908373ffffffffffffffffffffffffffffffffffffffff16021790555060a08201518160050160006101000a81548173ffffffffffffffffffffffffffffffffffffffff021916908373ffffffffffffffffffffffffffffffffffffffff16021790555060c0820151816006015560e082015181600701556101008201518160080160006101000a81548160ff021916908315150217905550905050505050565b600e818051602081018201805184825260208301602085012081835280955050505050506000915054906101000a900460ff1681565b600073ffffffffffffffffffffffffffffffffffffffff163373ffffffffffffffffffffffffffffffffffffffff1614156121c557600080fd5b600c600081548092919060010191905055506121e2600c54612bd7565b156121ec57600080fd5b6010836040516121fc9190614436565b908152602001604051809103902060009054906101000a900460ff161561222257600080fd5b600e846040516122329190614436565b908152602001604051809103902060009054906101000a900460ff161561225857600080fd5b600f816040516122689190614436565b908152602001604051809103902060009054906101000a900460ff161561228e57600080fd5b61229a33600c5461307b565b6122a6600c548461326f565b60016010846040516122b89190614436565b908152602001604051809103902060006101000a81548160ff0219169083151502179055506001600f826040516122ef9190614436565b908152602001604051809103902060006101000a81548160ff0219169083151502179055506001600e856040516123269190614436565b908152602001604051809103902060006101000a81548160ff0219169083151502179055506000604051806101200160405280600c5481526020018681526020018581526020013373ffffffffffffffffffffffffffffffffffffffff1681526020013373ffffffffffffffffffffffffffffffffffffffff168152602001600073ffffffffffffffffffffffffffffffffffffffff1681526020018481526020016000815260200160001515815250905080600d6000600c548152602001908152602001600020600082015181600001556020820151816001019080519060200190612414929190613ea0565b506040820151816002019080519060200190612431929190613ea0565b5060608201518160030160006101000a81548173ffffffffffffffffffffffffffffffffffffffff021916908373ffffffffffffffffffffffffffffffffffffffff16021790555060808201518160040160006101000a81548173ffffffffffffffffffffffffffffffffffffffff021916908373ffffffffffffffffffffffffffffffffffffffff16021790555060a08201518160050160006101000a81548173ffffffffffffffffffffffffffffffffffffffff021916908373ffffffffffffffffffffffffffffffffffffffff16021790555060c0820151816006015560e082015181600701556101008201518160080160006101000a81548160ff0219169083151502179055509050505050505050565b600080612552836117c7565b905080915050919050565b61256e612568612bf4565b83612cca565b6125c3576040517f08c379a00000000000000000000000000000000000000000000000000000000081526004018080602001828103825260318152602001806149936031913960400191505060405180910390fd5b6125cf848484846132f9565b50505050565b600d602052806000526040600020600091509050806000015490806001018054600181600116156101000203166002900480601f0160208091040260200160405190810160405280929190818152602001828054600181600116156101000203166002900480156126875780601f1061265c57610100808354040283529160200191612687565b820191906000526020600020905b81548152906001019060200180831161266a57829003601f168201915b505050505090806002018054600181600116156101000203166002900480601f0160208091040260200160405190810160405280929190818152602001828054600181600116156101000203166002900480156127255780601f106126fa57610100808354040283529160200191612725565b820191906000526020600020905b81548152906001019060200180831161270857829003601f168201915b5050505050908060030160009054906101000a900473ffffffffffffffffffffffffffffffffffffffff16908060040160009054906101000a900473ffffffffffffffffffffffffffffffffffffffff16908060050160009054906101000a900473ffffffffffffffffffffffffffffffffffffffff16908060060154908060070154908060080160009054906101000a900460ff16905089565b60606127cb82612bd7565b612820576040517f08c379a000000000000000000000000000000000000000000000000000000000815260040180806020018281038252602f815260200180614943602f913960400191505060405180910390fd5b6000600860008481526020019081526020016000208054600181600116156101000203166002900480601f0160208091040260200160405190810160405280929190818152602001828054600181600116156101000203166002900480156128c95780601f1061289e576101008083540402835291602001916128c9565b820191906000526020600020905b8154815290600101906020018083116128ac57829003601f168201915b5050505050905060006128da611816565b90506000815114156128f0578192505050612a8c565b6000825111156129c15780826040516020018083805190602001908083835b60208310612932578051825260208201915060208101905060208303925061290f565b6001836020036101000a03801982511681845116808217855250505050505090500182805190602001908083835b602083106129835780518252602082019150602081019050602083039250612960565b6001836020036101000a0380198251168184511680821785525050505050509050019250505060405160208183030381529060405292505050612a8c565b806129cb8561336b565b6040516020018083805190602001908083835b60208310612a0157805182526020820191506020810190506020830392506129de565b6001836020036101000a03801982511681845116808217855250505050505090500182805190602001908083835b60208310612a525780518252602082019150602081019050602083039250612a2f565b6001836020036101000a03801982511681845116808217855250505050505090500192505050604051602081830303815290604052925050505b919050565b600080612a9c610bbc565b90508091505090565b600a8054600181600116156101000203166002900480601f016020809104026020016040519081016040528092919081815260200182805460018160011615610100020316600290048015612b3b5780601f10612b1057610100808354040283529160200191612b3b565b820191906000526020600020905b815481529060010190602001808311612b1e57829003601f168201915b505050505081565b6000600560008473ffffffffffffffffffffffffffffffffffffffff1673ffffffffffffffffffffffffffffffffffffffff16815260200190815260200160002060008373ffffffffffffffffffffffffffffffffffffffff1673ffffffffffffffffffffffffffffffffffffffff16815260200190815260200160002060009054906101000a900460ff16905092915050565b6000612bed8260026134b290919063ffffffff16565b9050919050565b600033905090565b816004600083815260200190815260200160002060006101000a81548173ffffffffffffffffffffffffffffffffffffffff021916908373ffffffffffffffffffffffffffffffffffffffff160217905550808273ffffffffffffffffffffffffffffffffffffffff16612c6f836117c7565b73ffffffffffffffffffffffffffffffffffffffff167f8c5be1e5ebec7d5bd14f71427d1e84f3dd0314c0f7b2291e5b200ac8c7c3b92560405160405180910390a45050565b6000612cc3826000016134cc565b9050919050565b6000612cd582612bd7565b612d2a576040517f08c379a000000000000000000000000000000000000000000000000000000000815260040180806020018281038252602c8152602001806147e9602c913960400191505060405180910390fd5b6000612d35836117c7565b90508073ffffffffffffffffffffffffffffffffffffffff168473ffffffffffffffffffffffffffffffffffffffff161480612da457508373ffffffffffffffffffffffffffffffffffffffff16612d8c84610990565b73ffffffffffffffffffffffffffffffffffffffff16145b80612db55750612db48185612b43565b5b91505092915050565b8273ffffffffffffffffffffffffffffffffffffffff16612dde826117c7565b73ffffffffffffffffffffffffffffffffffffffff1614612e4a576040517f08c379a000000000000000000000000000000000000000000000000000000000815260040180806020018281038252602981526020018061491a6029913960400191505060405180910390fd5b600073ffffffffffffffffffffffffffffffffffffffff168273ffffffffffffffffffffffffffffffffffffffff161415612ed0576040517f08c379a000000000000000000000000000000000000000000000000000000000815260040180806020018281038252602481526020018061479f6024913960400191505060405180910390fd5b612edb8383836134dd565b612ee6600082612bfc565b612f3781600160008673ffffffffffffffffffffffffffffffffffffffff1673ffffffffffffffffffffffffffffffffffffffff1681526020019081526020016000206134e290919063ffffffff16565b50612f8981600160008573ffffffffffffffffffffffffffffffffffffffff1673ffffffffffffffffffffffffffffffffffffffff1681526020019081526020016000206134fc90919063ffffffff16565b50612fa0818360026135169092919063ffffffff16565b50808273ffffffffffffffffffffffffffffffffffffffff168473ffffffffffffffffffffffffffffffffffffffff167fddf252ad1be2c89b69c2b068fc378daa952ba7f163c4a11628f55a4df523b3ef60405160405180910390a4505050565b6000613010836000018361354b565b60001c905092915050565b60008060008061302e86600001866135ce565b915091508160001c8160001c9350935050509250929050565b600061305a846000018460001b84613667565b60001c90509392505050565b60006130748260000161375d565b9050919050565b600073ffffffffffffffffffffffffffffffffffffffff168273ffffffffffffffffffffffffffffffffffffffff16141561311e576040517f08c379a00000000000000000000000000000000000000000000000000000000081526004018080602001828103825260208152602001807f4552433732313a206d696e7420746f20746865207a65726f206164647265737381525060200191505060405180910390fd5b61312781612bd7565b1561319a576040517f08c379a000000000000000000000000000000000000000000000000000000000815260040180806020018281038252601c8152602001807f4552433732313a20746f6b656e20616c7265616479206d696e7465640000000081525060200191505060405180910390fd5b6131a6600083836134dd565b6131f781600160008573ffffffffffffffffffffffffffffffffffffffff1673ffffffffffffffffffffffffffffffffffffffff1681526020019081526020016000206134fc90919063ffffffff16565b5061320e818360026135169092919063ffffffff16565b50808273ffffffffffffffffffffffffffffffffffffffff16600073ffffffffffffffffffffffffffffffffffffffff167fddf252ad1be2c89b69c2b068fc378daa952ba7f163c4a11628f55a4df523b3ef60405160405180910390a45050565b61327882612bd7565b6132cd576040517f08c379a000000000000000000000000000000000000000000000000000000000815260040180806020018281038252602c8152602001806148ee602c913960400191505060405180910390fd5b806008600084815260200190815260200160002090805190602001906132f4929190613ea0565b505050565b613304848484612dbe565b6133108484848461376e565b613365576040517f08c379a000000000000000000000000000000000000000000000000000000000815260040180806020018281038252603281526020018061476d6032913960400191505060405180910390fd5b50505050565b606060008214156133b3576040518060400160405280600181526020017f300000000000000000000000000000000000000000000000000000000000000081525090506134ad565b600082905060005b600082146133dd578080600101915050600a82816133d557fe5b0491506133bb565b60008167ffffffffffffffff811180156133f657600080fd5b506040519080825280601f01601f1916602001820160405280156134295781602001600182028036833780820191505090505b50905060006001830390508593505b600084146134a557600a848161344a57fe5b0660300160f81b8282806001900393508151811061346457fe5b60200101907effffffffffffffffffffffffffffffffffffffffffffffffffffffffffffff1916908160001a905350600a848161349d57fe5b049350613438565b819450505050505b919050565b60006134c4836000018360001b613987565b905092915050565b600081600001805490509050919050565b505050565b60006134f4836000018360001b6139aa565b905092915050565b600061350e836000018360001b613a92565b905092915050565b6000613542846000018460001b8473ffffffffffffffffffffffffffffffffffffffff1660001b613b02565b90509392505050565b6000818360000180549050116135ac576040517f08c379a000000000000000000000000000000000000000000000000000000000815260040180806020018281038252602281526020018061474b6022913960400191505060405180910390fd5b8260000182815481106135bb57fe5b9060005260206000200154905092915050565b60008082846000018054905011613630576040517f08c379a00000000000000000000000000000000000000000000000000000000081526004018080602001828103825260228152602001806148a06022913960400191505060405180910390fd5b600084600001848154811061364157fe5b906000526020600020906002020190508060000154816001015492509250509250929050565b6000808460010160008581526020019081526020016000205490506000811415839061372e576040517f08c379a00000000000000000000000000000000000000000000000000000000081526004018080602001828103825283818151815260200191508051906020019080838360005b838110156136f35780820151818401526020810190506136d8565b50505050905090810190601f1680156137205780820380516001836020036101000a031916815260200191505b509250505060405180910390fd5b5084600001600182038154811061374157fe5b9060005260206000209060020201600101549150509392505050565b600081600001805490509050919050565b600061378f8473ffffffffffffffffffffffffffffffffffffffff16613bde565b61379c576001905061397f565b600061390663150b7a0260e01b6137b1612bf4565b888787604051602401808573ffffffffffffffffffffffffffffffffffffffff1681526020018473ffffffffffffffffffffffffffffffffffffffff16815260200183815260200180602001828103825283818151815260200191508051906020019080838360005b8381101561383557808201518184015260208101905061381a565b50505050905090810190601f1680156138625780820380516001836020036101000a031916815260200191505b5095505050505050604051602081830303815290604052907bffffffffffffffffffffffffffffffffffffffffffffffffffffffff19166020820180517bffffffffffffffffffffffffffffffffffffffffffffffffffffffff838183161783525050505060405180606001604052806032815260200161476d603291398773ffffffffffffffffffffffffffffffffffffffff16613bf19092919063ffffffff16565b9050600081806020019051602081101561391f57600080fd5b8101908080519060200190929190505050905063150b7a0260e01b7bffffffffffffffffffffffffffffffffffffffffffffffffffffffff1916817bffffffffffffffffffffffffffffffffffffffffffffffffffffffff191614925050505b949350505050565b600080836001016000848152602001908152602001600020541415905092915050565b60008083600101600084815260200190815260200160002054905060008114613a8657600060018203905060006001866000018054905003905060008660000182815481106139f557fe5b9060005260206000200154905080876000018481548110613a1257fe5b9060005260206000200181905550600183018760010160008381526020019081526020016000208190555086600001805480613a4a57fe5b60019003818190600052602060002001600090559055866001016000878152602001908152602001600020600090556001945050505050613a8c565b60009150505b92915050565b6000613a9e8383613c09565b613af7578260000182908060018154018082558091505060019003906000526020600020016000909190919091505582600001805490508360010160008481526020019081526020016000208190555060019050613afc565b600090505b92915050565b6000808460010160008581526020019081526020016000205490506000811415613ba957846000016040518060400160405280868152602001858152509080600181540180825580915050600190039060005260206000209060020201600090919091909150600082015181600001556020820151816001015550508460000180549050856001016000868152602001908152602001600020819055506001915050613bd7565b82856000016001830381548110613bbc57fe5b90600052602060002090600202016001018190555060009150505b9392505050565b600080823b905060008111915050919050565b6060613c008484600085613c2c565b90509392505050565b600080836001016000848152602001908152602001600020541415905092915050565b606082471015613c87576040517f08c379a00000000000000000000000000000000000000000000000000000000081526004018080602001828103825260268152602001806147c36026913960400191505060405180910390fd5b613c9085613bde565b613d02576040517f08c379a000000000000000000000000000000000000000000000000000000000815260040180806020018281038252601d8152602001807f416464726573733a2063616c6c20746f206e6f6e2d636f6e747261637400000081525060200191505060405180910390fd5b6000808673ffffffffffffffffffffffffffffffffffffffff1685876040518082805190602001908083835b60208310613d515780518252602082019150602081019050602083039250613d2e565b6001836020036101000a03801982511681845116808217855250505050505090500191505060006040518083038185875af1925050503d8060008114613db3576040519150601f19603f3d011682016040523d82523d6000602084013e613db8565b606091505b5091509150613dc8828286613dd4565b92505050949350505050565b60608315613de457829050613e99565b600083511115613df75782518084602001fd5b816040517f08c379a00000000000000000000000000000000000000000000000000000000081526004018080602001828103825283818151815260200191508051906020019080838360005b83811015613e5e578082015181840152602081019050613e43565b50505050905090810190601f168015613e8b5780820380516001836020036101000a031916815260200191505b509250505060405180910390fd5b9392505050565b828054600181600116156101000203166002900490600052602060002090601f016020900481019282613ed65760008555613f1d565b82601f10613eef57805160ff1916838001178555613f1d565b82800160010185558215613f1d579182015b82811115613f1c578251825591602001919060010190613f01565b5b509050613f2a9190613f2e565b5090565b5b80821115613f47576000816000905550600101613f2f565b5090565b6000613f5e613f598461458c565b61455b565b905082815260208101848484011115613f7657600080fd5b613f81848285614699565b509392505050565b6000613f9c613f97846145bc565b61455b565b905082815260208101848484011115613fb457600080fd5b613fbf848285614699565b509392505050565b600081359050613fd6816146ee565b92915050565b600081359050613feb81614705565b92915050565b6000813590506140008161471c565b92915050565b600082601f83011261401757600080fd5b8135614027848260208601613f4b565b91505092915050565b600082601f83011261404157600080fd5b8135614051848260208601613f89565b91505092915050565b60008135905061406981614733565b92915050565b60006020828403121561408157600080fd5b600061408f84828501613fc7565b91505092915050565b600080604083850312156140ab57600080fd5b60006140b985828601613fc7565b92505060206140ca85828601613fc7565b9150509250929050565b6000806000606084860312156140e957600080fd5b60006140f786828701613fc7565b935050602061410886828701613fc7565b92505060406141198682870161405a565b9150509250925092565b6000806000806080858703121561413957600080fd5b600061414787828801613fc7565b945050602061415887828801613fc7565b93505060406141698782880161405a565b925050606085013567ffffffffffffffff81111561418657600080fd5b61419287828801614006565b91505092959194509250565b600080604083850312156141b157600080fd5b60006141bf85828601613fc7565b92505060206141d085828601613fdc565b9150509250929050565b600080604083850312156141ed57600080fd5b60006141fb85828601613fc7565b925050602061420c8582860161405a565b9150509250929050565b60006020828403121561422857600080fd5b600061423684828501613ff1565b91505092915050565b60006020828403121561425157600080fd5b600082013567ffffffffffffffff81111561426b57600080fd5b61427784828501614030565b91505092915050565b6000806000806080858703121561429657600080fd5b600085013567ffffffffffffffff8111156142b057600080fd5b6142bc87828801614030565b945050602085013567ffffffffffffffff8111156142d957600080fd5b6142e587828801614030565b93505060406142f68782880161405a565b925050606085013567ffffffffffffffff81111561431357600080fd5b61431f87828801614030565b91505092959194509250565b60006020828403121561433d57600080fd5b600061434b8482850161405a565b91505092915050565b6000806040838503121561436757600080fd5b60006143758582860161405a565b92505060206143868582860161405a565b9150509250929050565b61439981614625565b82525050565b6143a881614613565b82525050565b6143b781614637565b82525050565b60006143c8826145ec565b6143d281856145f7565b93506143e28185602086016146a8565b6143eb816146dd565b840191505092915050565b6000614401826145ec565b61440b8185614608565b935061441b8185602086016146a8565b80840191505092915050565b6144308161468f565b82525050565b600061444282846143f6565b915081905092915050565b6000602082019050614462600083018461439f565b92915050565b600060208201905061447d60008301846143ae565b92915050565b6000602082019050818103600083015261449d81846143bd565b905092915050565b60006020820190506144ba6000830184614427565b92915050565b6000610120820190506144d6600083018c614427565b81810360208301526144e8818b6143bd565b905081810360408301526144fc818a6143bd565b905061450b6060830189614390565b6145186080830188614390565b61452560a0830187614390565b61453260c0830186614427565b61453f60e0830185614427565b61454d6101008301846143ae565b9a9950505050505050505050565b6000604051905081810181811067ffffffffffffffff82111715614582576145816146db565b5b8060405250919050565b600067ffffffffffffffff8211156145a7576145a66146db565b5b601f19601f8301169050602081019050919050565b600067ffffffffffffffff8211156145d7576145d66146db565b5b601f19601f8301169050602081019050919050565b600081519050919050565b600082825260208201905092915050565b600081905092915050565b600061461e8261466f565b9050919050565b60006146308261466f565b9050919050565b60008115159050919050565b60007fffffffff0000000000000000000000000000000000000000000000000000000082169050919050565b600073ffffffffffffffffffffffffffffffffffffffff82169050919050565b6000819050919050565b82818337600083830152505050565b60005b838110156146c65780820151818401526020810190506146ab565b838111156146d5576000848401525b50505050565bfe5b6000601f19601f8301169050919050565b6146f781614613565b811461470257600080fd5b50565b61470e81614637565b811461471957600080fd5b50565b61472581614643565b811461473057600080fd5b50565b61473c8161468f565b811461474757600080fd5b5056fe456e756d657261626c655365743a20696e646578206f7574206f6620626f756e64734552433732313a207472616e7366657220746f206e6f6e20455243373231526563656976657220696d706c656d656e7465724552433732313a207472616e7366657220746f20746865207a65726f2061646472657373416464726573733a20696e73756666696369656e742062616c616e636520666f722063616c6c4552433732313a206f70657261746f7220717565727920666f72206e6f6e6578697374656e7420746f6b656e4552433732313a20617070726f76652063616c6c6572206973206e6f74206f776e6572206e6f7220617070726f76656420666f7220616c6c4552433732313a2062616c616e636520717565727920666f7220746865207a65726f20616464726573734552433732313a206f776e657220717565727920666f72206e6f6e6578697374656e7420746f6b656e456e756d657261626c654d61703a20696e646578206f7574206f6620626f756e64734552433732313a20617070726f76656420717565727920666f72206e6f6e6578697374656e7420746f6b656e4552433732314d657461646174613a2055524920736574206f66206e6f6e6578697374656e7420746f6b656e4552433732313a207472616e73666572206f6620746f6b656e2074686174206973206e6f74206f776e4552433732314d657461646174613a2055524920717565727920666f72206e6f6e6578697374656e7420746f6b656e4552433732313a20617070726f76616c20746f2063757272656e74206f776e65724552433732313a207472616e736665722063616c6c6572206973206e6f74206f776e6572206e6f7220617070726f766564a264697066735822122067f4d8852b6baaba47832370151142e3d0e2e799310a73dd2e2c772f3dcf4d0364736f6c63430007060033",
  "immutableReferences": {},
  "source": "// SPDX-License-Identifier: MIT\r\npragma solidity >=0.4.21 <0.8.0;\r\npragma abicoder v2;\r\n\r\n// import ERC721 iterface\r\nimport \"./ERC721.sol\";\r\n\r\n// NFT smart contract inherits ERC721 interface\r\ncontract Marketplace is ERC721 {\r\n\r\n  // this contract's token collection name\r\n  string public collectionName;\r\n\r\n  // this contract's token symbol\r\n  string public collectionNameSymbol;\r\n\r\n  // total number of NFT minted\r\n  uint256 public NFTCounter;\r\n\r\n  // define NFT struct\r\n   struct NFT {\r\n    uint256 tokenId;\r\n    string tokenName;\r\n    string tokenURI;\r\n    address payable mintedBy;\r\n    address payable currentOwner;\r\n    address payable previousOwner;\r\n    uint256 price;\r\n    uint256 numberOfTransfers;\r\n    bool forSale;\r\n  }\r\n\r\n  // map NFT's token id to NFT\r\n  mapping(uint256 => NFT) public allNFTs;\r\n\r\n  // check if token name exists\r\n  mapping(string => bool) public tokenNameExists;\r\n\r\n  // mapping(string => bool) public colorExists;\r\n   mapping(string => bool) public tokenImageExists;\r\n\r\n  // check if token URI exists\r\n  mapping(string => bool) public tokenURIExists;\r\n\r\n  // initialize contract while deployment with contract's collection name and token\r\n  constructor() ERC721(\"NFT Collection\", \"NFT\") {\r\n    collectionName = name();\r\n    collectionNameSymbol = symbol();\r\n  }\r\n\r\n  // mint a new NFT\r\n  function mintNFT(string memory _name, string memory _tokenURI, uint256 _price, string memory _imageHash) external {\r\n\r\n    // check if thic fucntion caller is not an zero address account\r\n    require(msg.sender != address(0));\r\n\r\n    NFTCounter ++;\r\n    \r\n    // check if a token exists with the above token id => incremented counter\r\n    require(!_exists(NFTCounter));\r\n\r\n    // check if the token URI already exists or not\r\n    require(!tokenURIExists[_tokenURI]);\r\n\r\n    // check if the token name already exists or not\r\n    require(!tokenNameExists[_name]);\r\n\r\n    // check if the Image hash already exists or not\r\n    require(!tokenImageExists[_imageHash]);\r\n\r\n    // mint the token\r\n    _mint(msg.sender, NFTCounter);\r\n\r\n    // set token URI (bind token id with the passed in token URI)\r\n    _setTokenURI(NFTCounter, _tokenURI);\r\n\r\n    // make passed token URI as exists\r\n    tokenURIExists[_tokenURI] = true;\r\n\r\n    // make passed token Image as exists\r\n    tokenImageExists[_imageHash] = true;\r\n\r\n    // make token name passed as exists\r\n    tokenNameExists[_name] = true;\r\n\r\n    // create a new NFT (struct) and pass in new values\r\n    NFT memory newNFT = NFT(\r\n      NFTCounter,\r\n      _name,\r\n      _tokenURI,\r\n      msg.sender,\r\n      msg.sender,\r\n      address(0),\r\n      _price,\r\n      0,\r\n      false);\r\n    \r\n    // add the token id and it's nft to allNFT mapping\r\n    allNFTs[NFTCounter] = newNFT;\r\n  }\r\n\r\n  // get owner of the token\r\n  function getTokenOwner(uint256 _tokenId) public view returns(address) {\r\n    address _tokenOwner = ownerOf(_tokenId);\r\n    return _tokenOwner;\r\n  }\r\n\r\n  // get metadata of the token\r\n  function getTokenMetaData(uint _tokenId) public view returns(string memory) {\r\n    string memory tokenMetaData = tokenURI(_tokenId);\r\n    return tokenMetaData;\r\n  }\r\n\r\n  // get total number of tokens minted so far\r\n  function getNumberOfTokensMinted() public view returns(uint256) {\r\n    uint256 totalNumberOfTokensMinted = totalSupply();\r\n    return totalNumberOfTokensMinted;\r\n  }\r\n\r\n  // get total number of tokens owned by an address\r\n  function getTotalNumberOfTokensOwnedByAnAddress(address _owner) public view returns(uint256) {\r\n    uint256 totalNumberOfTokensOwned = balanceOf(_owner);\r\n    return totalNumberOfTokensOwned;\r\n  }\r\n\r\n  // check if the token already exists\r\n  function getTokenExists(uint256 _tokenId) public view returns(bool) {\r\n    bool tokenExists = _exists(_tokenId);\r\n    return tokenExists;\r\n  }\r\n\r\n  // by a token by passing in the token's id\r\n  function buyToken(uint256 _tokenId) public payable {\r\n    \r\n    // check if the function caller is not an zero account address\r\n    require(msg.sender != address(0));\r\n    \r\n    // check if the token id of the token being bought exists or not\r\n    require(_exists(_tokenId));\r\n    \r\n    // get the token's owner\r\n    address tokenOwner = ownerOf(_tokenId);\r\n    \r\n    // token's owner should not be an zero address account\r\n    require(tokenOwner != address(0));\r\n    \r\n    // the one who wants to buy the token should not be the token's owner\r\n    require(tokenOwner != msg.sender);\r\n    \r\n    // get that token from all NFT mapping and create a memory of it defined as (struct => NFT)\r\n    NFT memory nft = allNFTs[_tokenId];\r\n    \r\n    // price sent in to buy should be equal to or more than the token's price\r\n    require(msg.value >= nft.price);\r\n    \r\n    // token should be for sale\r\n    require(nft.forSale);\r\n    \r\n    // transfer the token from owner to the caller of the function (buyer)\r\n    _transfer(tokenOwner, msg.sender, _tokenId);\r\n    \r\n    // get owner of the token\r\n    address payable sendTo = nft.currentOwner;\r\n    \r\n    // send token's worth of ethers to the owner\r\n    sendTo.transfer(msg.value);\r\n    \r\n    // update the token's previous owner\r\n    nft.previousOwner = nft.currentOwner;\r\n    \r\n    // update the token's current owner\r\n    nft.currentOwner = msg.sender;\r\n    \r\n    // update the how many times this token was transfered\r\n    nft.numberOfTransfers += 1;\r\n\r\n    // toggle the forSale parameter of token\r\n    nft.forSale = false;\r\n    \r\n    // set and update that token in the mapping\r\n    allNFTs[_tokenId] = nft;\r\n  }\r\n\r\n  function changeTokenPrice(uint256 _tokenId, uint256 _newPrice) public {\r\n    \r\n    // require caller of the function is not an empty address\r\n    require(msg.sender != address(0));\r\n    \r\n    // require that token should exist\r\n    require(_exists(_tokenId));\r\n    \r\n    // get the token's owner\r\n    address tokenOwner = ownerOf(_tokenId);\r\n    \r\n    // check that token's owner should be equal to the caller of the function\r\n    require(tokenOwner == msg.sender);\r\n    \r\n    // get that token from allNFT mapping and create a memory of it defined as (struct => NFT)\r\n    NFT memory nft = allNFTs[_tokenId];\r\n    \r\n    // update token's price with new price\r\n    nft.price = _newPrice;\r\n    \r\n    // set and update that token in the mapping\r\n    allNFTs[_tokenId] = nft;\r\n  }\r\n\r\n  // switch between set for sale and set not for sale\r\n  function toggleForSale(uint256 _tokenId) public {\r\n    \r\n    // require caller of the function is not an empty address\r\n    require(msg.sender != address(0));\r\n    \r\n    // require that token should exist\r\n    require(_exists(_tokenId));\r\n    \r\n    // get the token's owner\r\n    address tokenOwner = ownerOf(_tokenId);\r\n    \r\n    // check that token's owner should be equal to the caller of the function\r\n    require(tokenOwner == msg.sender);\r\n    \r\n    // get that token from all NFT mapping and create a memory of it defined as (struct => NFT)\r\n    NFT memory nft = allNFTs[_tokenId];\r\n    \r\n    // if token's forSale is false make it true and vice versa\r\n    if(nft.forSale) {\r\n      nft.forSale = false;\r\n    } else {\r\n      nft.forSale = true;\r\n    }\r\n    \r\n    // set and update that token in the mapping\r\n    allNFTs[_tokenId] = nft;\r\n  }\r\n}",
  "sourcePath": "C:\\Users\\Jhenil\\Blockchain Projects\\NFT MARKETPLLACE\\src\\contracts\\Marketplace.sol",
  "compiler": {
    "name": "solc",
    "version": "0.7.6+commit.7338295f.Emscripten.clang"
  },
  "schemaVersion": "3.4.4",
  "updatedAt": "2022-06-02T15:06:38.364Z",
  "networkType": "ethereum",
  "devdoc": {
    "kind": "dev",
    "methods": {
      "approve(address,uint256)": {
        "details": "See {IERC721-approve}."
      },
      "balanceOf(address)": {
        "details": "See {IERC721-balanceOf}."
      },
      "baseURI()": {
        "details": "Returns the base URI set via {_setBaseURI}. This will be automatically added as a prefix in {tokenURI} to each token's URI, or to the token ID if no specific URI is set for that token ID."
      },
      "getApproved(uint256)": {
        "details": "See {IERC721-getApproved}."
      },
      "isApprovedForAll(address,address)": {
        "details": "See {IERC721-isApprovedForAll}."
      },
      "name()": {
        "details": "See {IERC721Metadata-name}."
      },
      "ownerOf(uint256)": {
        "details": "See {IERC721-ownerOf}."
      },
      "safeTransferFrom(address,address,uint256)": {
        "details": "See {IERC721-safeTransferFrom}."
      },
      "safeTransferFrom(address,address,uint256,bytes)": {
        "details": "See {IERC721-safeTransferFrom}."
      },
      "setApprovalForAll(address,bool)": {
        "details": "See {IERC721-setApprovalForAll}."
      },
      "supportsInterface(bytes4)": {
        "details": "See {IERC165-supportsInterface}. Time complexity O(1), guaranteed to always use less than 30 000 gas."
      },
      "symbol()": {
        "details": "See {IERC721Metadata-symbol}."
      },
      "tokenByIndex(uint256)": {
        "details": "See {IERC721Enumerable-tokenByIndex}."
      },
      "tokenOfOwnerByIndex(address,uint256)": {
        "details": "See {IERC721Enumerable-tokenOfOwnerByIndex}."
      },
      "tokenURI(uint256)": {
        "details": "See {IERC721Metadata-tokenURI}."
      },
      "totalSupply()": {
        "details": "See {IERC721Enumerable-totalSupply}."
      },
      "transferFrom(address,address,uint256)": {
        "details": "See {IERC721-transferFrom}."
      }
    },
    "version": 1
  },
  "userdoc": {
    "kind": "user",
    "methods": {},
    "version": 1
  }
}