{
  "contractName": "Marketplace",
  "abi": [
    {
      "inputs": [],
      "stateMutability": "nonpayable",
      "type": "constructor"
    },
    {
      "anonymous": false,
      "inputs": [
        {
          "indexed": true,
          "internalType": "address",
          "name": "owner",
          "type": "address"
        },
        {
          "indexed": true,
          "internalType": "address",
          "name": "approved",
          "type": "address"
        },
        {
          "indexed": true,
          "internalType": "uint256",
          "name": "tokenId",
          "type": "uint256"
        }
      ],
      "name": "Approval",
      "type": "event"
    },
    {
      "anonymous": false,
      "inputs": [
        {
          "indexed": true,
          "internalType": "address",
          "name": "owner",
          "type": "address"
        },
        {
          "indexed": true,
          "internalType": "address",
          "name": "operator",
          "type": "address"
        },
        {
          "indexed": false,
          "internalType": "bool",
          "name": "approved",
          "type": "bool"
        }
      ],
      "name": "ApprovalForAll",
      "type": "event"
    },
    {
      "anonymous": false,
      "inputs": [
        {
          "indexed": true,
          "internalType": "address",
          "name": "from",
          "type": "address"
        },
        {
          "indexed": true,
          "internalType": "address",
          "name": "to",
          "type": "address"
        },
        {
          "indexed": true,
          "internalType": "uint256",
          "name": "tokenId",
          "type": "uint256"
        }
      ],
      "name": "Transfer",
      "type": "event"
    },
    {
      "inputs": [],
      "name": "NFTCounter",
      "outputs": [
        {
          "internalType": "uint256",
          "name": "",
          "type": "uint256"
        }
      ],
      "stateMutability": "view",
      "type": "function",
      "constant": true
    },
    {
      "inputs": [],
      "name": "UserCounter",
      "outputs": [
        {
          "internalType": "uint256",
          "name": "",
          "type": "uint256"
        }
      ],
      "stateMutability": "view",
      "type": "function",
      "constant": true
    },
    {
      "inputs": [
        {
          "internalType": "uint256",
          "name": "",
          "type": "uint256"
        }
      ],
      "name": "allNFTs",
      "outputs": [
        {
          "internalType": "uint256",
          "name": "tokenId",
          "type": "uint256"
        },
        {
          "internalType": "string",
          "name": "tokenName",
          "type": "string"
        },
        {
          "internalType": "string",
          "name": "tokenImage",
          "type": "string"
        },
        {
          "internalType": "string",
          "name": "tokenURI",
          "type": "string"
        },
        {
          "internalType": "address payable",
          "name": "mintedBy",
          "type": "address"
        },
        {
          "internalType": "address payable",
          "name": "currentOwner",
          "type": "address"
        },
        {
          "internalType": "address payable",
          "name": "previousOwner",
          "type": "address"
        },
        {
          "internalType": "uint256",
          "name": "price",
          "type": "uint256"
        },
        {
          "internalType": "uint256",
          "name": "numberOfTransfers",
          "type": "uint256"
        },
        {
          "internalType": "bool",
          "name": "forSale",
          "type": "bool"
        }
      ],
      "stateMutability": "view",
      "type": "function",
      "constant": true
    },
    {
      "inputs": [
        {
          "internalType": "address",
          "name": "",
          "type": "address"
        }
      ],
      "name": "allProfiles",
      "outputs": [
        {
          "internalType": "string",
          "name": "bannerHash",
          "type": "string"
        },
        {
          "internalType": "string",
          "name": "imageHash",
          "type": "string"
        },
        {
          "internalType": "string",
          "name": "name",
          "type": "string"
        },
        {
          "internalType": "string",
          "name": "description",
          "type": "string"
        },
        {
          "internalType": "address",
          "name": "user",
          "type": "address"
        },
        {
          "internalType": "string",
          "name": "email",
          "type": "string"
        },
        {
          "internalType": "string",
          "name": "timeOfRegistry",
          "type": "string"
        }
      ],
      "stateMutability": "view",
      "type": "function",
      "constant": true
    },
    {
      "inputs": [
        {
          "internalType": "uint256",
          "name": "",
          "type": "uint256"
        }
      ],
      "name": "allProfilesDetails",
      "outputs": [
        {
          "internalType": "string",
          "name": "bannerHash",
          "type": "string"
        },
        {
          "internalType": "string",
          "name": "imageHash",
          "type": "string"
        },
        {
          "internalType": "string",
          "name": "name",
          "type": "string"
        },
        {
          "internalType": "string",
          "name": "description",
          "type": "string"
        },
        {
          "internalType": "address",
          "name": "user",
          "type": "address"
        },
        {
          "internalType": "string",
          "name": "email",
          "type": "string"
        },
        {
          "internalType": "string",
          "name": "timeOfRegistry",
          "type": "string"
        }
      ],
      "stateMutability": "view",
      "type": "function",
      "constant": true
    },
    {
      "inputs": [
        {
          "internalType": "address",
          "name": "to",
          "type": "address"
        },
        {
          "internalType": "uint256",
          "name": "tokenId",
          "type": "uint256"
        }
      ],
      "name": "approve",
      "outputs": [],
      "stateMutability": "nonpayable",
      "type": "function"
    },
    {
      "inputs": [
        {
          "internalType": "address",
          "name": "owner",
          "type": "address"
        }
      ],
      "name": "balanceOf",
      "outputs": [
        {
          "internalType": "uint256",
          "name": "",
          "type": "uint256"
        }
      ],
      "stateMutability": "view",
      "type": "function",
      "constant": true
    },
    {
      "inputs": [],
      "name": "baseURI",
      "outputs": [
        {
          "internalType": "string",
          "name": "",
          "type": "string"
        }
      ],
      "stateMutability": "view",
      "type": "function",
      "constant": true
    },
    {
      "inputs": [],
      "name": "collectionName",
      "outputs": [
        {
          "internalType": "string",
          "name": "",
          "type": "string"
        }
      ],
      "stateMutability": "view",
      "type": "function",
      "constant": true
    },
    {
      "inputs": [],
      "name": "collectionNameSymbol",
      "outputs": [
        {
          "internalType": "string",
          "name": "",
          "type": "string"
        }
      ],
      "stateMutability": "view",
      "type": "function",
      "constant": true
    },
    {
      "inputs": [
        {
          "internalType": "uint256",
          "name": "tokenId",
          "type": "uint256"
        }
      ],
      "name": "getApproved",
      "outputs": [
        {
          "internalType": "address",
          "name": "",
          "type": "address"
        }
      ],
      "stateMutability": "view",
      "type": "function",
      "constant": true
    },
    {
      "inputs": [
        {
          "internalType": "address",
          "name": "owner",
          "type": "address"
        },
        {
          "internalType": "address",
          "name": "operator",
          "type": "address"
        }
      ],
      "name": "isApprovedForAll",
      "outputs": [
        {
          "internalType": "bool",
          "name": "",
          "type": "bool"
        }
      ],
      "stateMutability": "view",
      "type": "function",
      "constant": true
    },
    {
      "inputs": [
        {
          "internalType": "address",
          "name": "",
          "type": "address"
        }
      ],
      "name": "isProfileSet",
      "outputs": [
        {
          "internalType": "bool",
          "name": "",
          "type": "bool"
        }
      ],
      "stateMutability": "view",
      "type": "function",
      "constant": true
    },
    {
      "inputs": [],
      "name": "name",
      "outputs": [
        {
          "internalType": "string",
          "name": "",
          "type": "string"
        }
      ],
      "stateMutability": "view",
      "type": "function",
      "constant": true
    },
    {
      "inputs": [
        {
          "internalType": "uint256",
          "name": "tokenId",
          "type": "uint256"
        }
      ],
      "name": "ownerOf",
      "outputs": [
        {
          "internalType": "address",
          "name": "",
          "type": "address"
        }
      ],
      "stateMutability": "view",
      "type": "function",
      "constant": true
    },
    {
      "inputs": [
        {
          "internalType": "address",
          "name": "from",
          "type": "address"
        },
        {
          "internalType": "address",
          "name": "to",
          "type": "address"
        },
        {
          "internalType": "uint256",
          "name": "tokenId",
          "type": "uint256"
        }
      ],
      "name": "safeTransferFrom",
      "outputs": [],
      "stateMutability": "nonpayable",
      "type": "function"
    },
    {
      "inputs": [
        {
          "internalType": "address",
          "name": "from",
          "type": "address"
        },
        {
          "internalType": "address",
          "name": "to",
          "type": "address"
        },
        {
          "internalType": "uint256",
          "name": "tokenId",
          "type": "uint256"
        },
        {
          "internalType": "bytes",
          "name": "_data",
          "type": "bytes"
        }
      ],
      "name": "safeTransferFrom",
      "outputs": [],
      "stateMutability": "nonpayable",
      "type": "function"
    },
    {
      "inputs": [
        {
          "internalType": "address",
          "name": "operator",
          "type": "address"
        },
        {
          "internalType": "bool",
          "name": "approved",
          "type": "bool"
        }
      ],
      "name": "setApprovalForAll",
      "outputs": [],
      "stateMutability": "nonpayable",
      "type": "function"
    },
    {
      "inputs": [
        {
          "internalType": "bytes4",
          "name": "interfaceId",
          "type": "bytes4"
        }
      ],
      "name": "supportsInterface",
      "outputs": [
        {
          "internalType": "bool",
          "name": "",
          "type": "bool"
        }
      ],
      "stateMutability": "view",
      "type": "function",
      "constant": true
    },
    {
      "inputs": [],
      "name": "symbol",
      "outputs": [
        {
          "internalType": "string",
          "name": "",
          "type": "string"
        }
      ],
      "stateMutability": "view",
      "type": "function",
      "constant": true
    },
    {
      "inputs": [
        {
          "internalType": "uint256",
          "name": "index",
          "type": "uint256"
        }
      ],
      "name": "tokenByIndex",
      "outputs": [
        {
          "internalType": "uint256",
          "name": "",
          "type": "uint256"
        }
      ],
      "stateMutability": "view",
      "type": "function",
      "constant": true
    },
    {
      "inputs": [
        {
          "internalType": "string",
          "name": "",
          "type": "string"
        }
      ],
      "name": "tokenImageExists",
      "outputs": [
        {
          "internalType": "bool",
          "name": "",
          "type": "bool"
        }
      ],
      "stateMutability": "view",
      "type": "function",
      "constant": true
    },
    {
      "inputs": [
        {
          "internalType": "string",
          "name": "",
          "type": "string"
        }
      ],
      "name": "tokenNameExists",
      "outputs": [
        {
          "internalType": "bool",
          "name": "",
          "type": "bool"
        }
      ],
      "stateMutability": "view",
      "type": "function",
      "constant": true
    },
    {
      "inputs": [
        {
          "internalType": "address",
          "name": "owner",
          "type": "address"
        },
        {
          "internalType": "uint256",
          "name": "index",
          "type": "uint256"
        }
      ],
      "name": "tokenOfOwnerByIndex",
      "outputs": [
        {
          "internalType": "uint256",
          "name": "",
          "type": "uint256"
        }
      ],
      "stateMutability": "view",
      "type": "function",
      "constant": true
    },
    {
      "inputs": [
        {
          "internalType": "uint256",
          "name": "tokenId",
          "type": "uint256"
        }
      ],
      "name": "tokenURI",
      "outputs": [
        {
          "internalType": "string",
          "name": "",
          "type": "string"
        }
      ],
      "stateMutability": "view",
      "type": "function",
      "constant": true
    },
    {
      "inputs": [
        {
          "internalType": "string",
          "name": "",
          "type": "string"
        }
      ],
      "name": "tokenURIExists",
      "outputs": [
        {
          "internalType": "bool",
          "name": "",
          "type": "bool"
        }
      ],
      "stateMutability": "view",
      "type": "function",
      "constant": true
    },
    {
      "inputs": [],
      "name": "totalSupply",
      "outputs": [
        {
          "internalType": "uint256",
          "name": "",
          "type": "uint256"
        }
      ],
      "stateMutability": "view",
      "type": "function",
      "constant": true
    },
    {
      "inputs": [
        {
          "internalType": "address",
          "name": "from",
          "type": "address"
        },
        {
          "internalType": "address",
          "name": "to",
          "type": "address"
        },
        {
          "internalType": "uint256",
          "name": "tokenId",
          "type": "uint256"
        }
      ],
      "name": "transferFrom",
      "outputs": [],
      "stateMutability": "nonpayable",
      "type": "function"
    },
    {
      "inputs": [
        {
          "internalType": "string",
          "name": "_name",
          "type": "string"
        },
        {
          "internalType": "string",
          "name": "_tokenURI",
          "type": "string"
        },
        {
          "internalType": "uint256",
          "name": "_price",
          "type": "uint256"
        },
        {
          "internalType": "string",
          "name": "_imageHash",
          "type": "string"
        }
      ],
      "name": "mintNFT",
      "outputs": [],
      "stateMutability": "nonpayable",
      "type": "function"
    },
    {
      "inputs": [
        {
          "internalType": "uint256",
          "name": "_tokenId",
          "type": "uint256"
        }
      ],
      "name": "getTokenOwner",
      "outputs": [
        {
          "internalType": "address",
          "name": "",
          "type": "address"
        }
      ],
      "stateMutability": "view",
      "type": "function",
      "constant": true
    },
    {
      "inputs": [
        {
          "internalType": "uint256",
          "name": "_tokenId",
          "type": "uint256"
        }
      ],
      "name": "getTokenMetaData",
      "outputs": [
        {
          "internalType": "string",
          "name": "",
          "type": "string"
        }
      ],
      "stateMutability": "view",
      "type": "function",
      "constant": true
    },
    {
      "inputs": [],
      "name": "getNumberOfTokensMinted",
      "outputs": [
        {
          "internalType": "uint256",
          "name": "",
          "type": "uint256"
        }
      ],
      "stateMutability": "view",
      "type": "function",
      "constant": true
    },
    {
      "inputs": [
        {
          "internalType": "address",
          "name": "_owner",
          "type": "address"
        }
      ],
      "name": "getTotalNumberOfTokensOwnedByAnAddress",
      "outputs": [
        {
          "internalType": "uint256",
          "name": "",
          "type": "uint256"
        }
      ],
      "stateMutability": "view",
      "type": "function",
      "constant": true
    },
    {
      "inputs": [
        {
          "internalType": "uint256",
          "name": "_tokenId",
          "type": "uint256"
        }
      ],
      "name": "buyToken",
      "outputs": [],
      "stateMutability": "payable",
      "type": "function",
      "payable": true
    },
    {
      "inputs": [
        {
          "internalType": "uint256",
          "name": "_tokenId",
          "type": "uint256"
        },
        {
          "internalType": "uint256",
          "name": "_newPrice",
          "type": "uint256"
        }
      ],
      "name": "changeTokenPrice",
      "outputs": [],
      "stateMutability": "nonpayable",
      "type": "function"
    },
    {
      "inputs": [
        {
          "internalType": "uint256",
          "name": "_tokenId",
          "type": "uint256"
        }
      ],
      "name": "toggleForSale",
      "outputs": [],
      "stateMutability": "nonpayable",
      "type": "function"
    },
    {
      "inputs": [
        {
          "internalType": "string",
          "name": "_bannerHash",
          "type": "string"
        },
        {
          "internalType": "string",
          "name": "_imageHash",
          "type": "string"
        },
        {
          "internalType": "string",
          "name": "_name",
          "type": "string"
        },
        {
          "internalType": "string",
          "name": "_description",
          "type": "string"
        },
        {
          "internalType": "address",
          "name": "_user",
          "type": "address"
        },
        {
          "internalType": "string",
          "name": "_email",
          "type": "string"
        },
        {
          "internalType": "string",
          "name": "_timestamp",
          "type": "string"
        }
      ],
      "name": "addUserProfile",
      "outputs": [],
      "stateMutability": "nonpayable",
      "type": "function"
    }
  ],
  "bytecode": "0x60806040523480156200001157600080fd5b506040518060400160405280600e81526020017f4e465420436f6c6c656374696f6e0000000000000000000000000000000000008152506040518060400160405280600381526020017f4e46540000000000000000000000000000000000000000000000000000000000815250620000966301ffc9a760e01b6200016860201b60201c565b8160069080519060200190620000ae929190620003bd565b508060079080519060200190620000c7929190620003bd565b50620000e06380ac58cd60e01b6200016860201b60201c565b620000f8635b5e139f60e01b6200016860201b60201c565b6200011063780e9d6360e01b6200016860201b60201c565b5050620001226200027160201b60201c565b600a908051906020019062000139929190620003bd565b506200014a6200031760201b60201c565b600b908051906020019062000161929190620003bd565b5062000473565b63ffffffff60e01b817bffffffffffffffffffffffffffffffffffffffffffffffffffffffff1916141562000205576040517f08c379a000000000000000000000000000000000000000000000000000000000815260040180806020018281038252601c8152602001807f4552433136353a20696e76616c696420696e746572666163652069640000000081525060200191505060405180910390fd5b6001600080837bffffffffffffffffffffffffffffffffffffffffffffffffffffffff19167bffffffffffffffffffffffffffffffffffffffffffffffffffffffff1916815260200190815260200160002060006101000a81548160ff02191690831515021790555050565b606060068054600181600116156101000203166002900480601f0160208091040260200160405190810160405280929190818152602001828054600181600116156101000203166002900480156200030d5780601f10620002e1576101008083540402835291602001916200030d565b820191906000526020600020905b815481529060010190602001808311620002ef57829003601f168201915b5050505050905090565b606060078054600181600116156101000203166002900480601f016020809104026020016040519081016040528092919081815260200182805460018160011615610100020316600290048015620003b35780601f106200038757610100808354040283529160200191620003b3565b820191906000526020600020905b8154815290600101906020018083116200039557829003601f168201915b5050505050905090565b828054600181600116156101000203166002900490600052602060002090601f016020900481019282620003f5576000855562000441565b82601f106200041057805160ff191683800117855562000441565b8280016001018555821562000441579182015b828111156200044057825182559160200191906001019062000423565b5b50905062000450919062000454565b5090565b5b808211156200046f57600081600090555060010162000455565b5090565b615fbd80620004836000396000f3fe60806040526004361061021a5760003560e01c806362e8e8ac11610123578063a46b1fac116100ab578063c87b56dd1161006f578063c87b56dd1461087b578063cc151f3a146108b8578063e5326ab1146108e3578063e985e9c51461090e578063ee3a68c11461094b5761021a565b8063a46b1fac14610769578063a570c3aa146107a6578063a5cd761f146107cf578063b88d4fde1461080c578063bf162d67146108355761021a565b80636f9507f9116100f25780636f9507f91461068457806370a08231146106af57806395d89b41146106ec578063a22cb46514610717578063a32018b9146107405761021a565b806362e8e8ac146105b65780636352211e146105df57806367c623cf1461061c5780636c0360eb146106595761021a565b80632d296bf1116101a6578063439028501161017557806343902850146104a957806343d32ae7146104e6578063483f8602146105235780634f6ccce71461054e5780635508d8e11461058b5761021a565b80632d296bf1146103fe5780632f745c591461041a5780633fe1f1401461045757806342842e0e146104805761021a565b8063095ea7b3116101ed578063095ea7b31461030757806317f445f11461033057806318160ddd1461036d578063185756ae1461039857806323b872dd146103d55761021a565b806301ffc9a71461021f57806302959a201461025c57806306fdde031461029f578063081812fc146102ca575b600080fd5b34801561022b57600080fd5b50610246600480360381019061024191906155fd565b61098e565b604051610253919061597d565b60405180910390f35b34801561026857600080fd5b50610283600480360381019061027e9190615456565b6109f5565b60405161029697969594939291906159ba565b60405180910390f35b3480156102ab57600080fd5b506102b4610de7565b6040516102c19190615998565b60405180910390f35b3480156102d657600080fd5b506102f160048036038101906102ec9190615840565b610e89565b6040516102fe9190615962565b60405180910390f35b34801561031357600080fd5b5061032e600480360381019061032991906155c1565b610f24565b005b34801561033c57600080fd5b5061035760048036038101906103529190615626565b611068565b604051610364919061597d565b60405180910390f35b34801561037957600080fd5b5061038261109e565b60405161038f9190615a53565b60405180910390f35b3480156103a457600080fd5b506103bf60048036038101906103ba9190615456565b6110af565b6040516103cc919061597d565b60405180910390f35b3480156103e157600080fd5b506103fc60048036038101906103f791906154bb565b6110cf565b005b61041860048036038101906104139190615840565b611145565b005b34801561042657600080fd5b50610441600480360381019061043c91906155c1565b6117f1565b60405161044e9190615a53565b60405180910390f35b34801561046357600080fd5b5061047e60048036038101906104799190615667565b61184c565b005b34801561048c57600080fd5b506104a760048036038101906104a291906154bb565b612070565b005b3480156104b557600080fd5b506104d060048036038101906104cb9190615456565b612090565b6040516104dd9190615a53565b60405180910390f35b3480156104f257600080fd5b5061050d60048036038101906105089190615626565b6120a7565b60405161051a919061597d565b60405180910390f35b34801561052f57600080fd5b506105386120dd565b6040516105459190615a53565b60405180910390f35b34801561055a57600080fd5b5061057560048036038101906105709190615840565b6120e3565b6040516105829190615a53565b60405180910390f35b34801561059757600080fd5b506105a0612106565b6040516105ad9190615a53565b60405180910390f35b3480156105c257600080fd5b506105dd60048036038101906105d89190615869565b61210c565b005b3480156105eb57600080fd5b5061060660048036038101906106019190615840565b612674565b6040516106139190615962565b60405180910390f35b34801561062857600080fd5b50610643600480360381019061063e9190615840565b6126ab565b6040516106509190615998565b60405180910390f35b34801561066557600080fd5b5061066e6126c3565b60405161067b9190615998565b60405180910390f35b34801561069057600080fd5b50610699612765565b6040516106a69190615998565b60405180910390f35b3480156106bb57600080fd5b506106d660048036038101906106d19190615456565b612803565b6040516106e39190615a53565b60405180910390f35b3480156106f857600080fd5b506107016128d8565b60405161070e9190615998565b60405180910390f35b34801561072357600080fd5b5061073e60048036038101906107399190615585565b61297a565b005b34801561074c57600080fd5b5061076760048036038101906107629190615840565b612b30565b005b34801561077557600080fd5b50610790600480360381019061078b9190615626565b6130c2565b60405161079d919061597d565b60405180910390f35b3480156107b257600080fd5b506107cd60048036038101906107c89190615795565b6130f8565b005b3480156107db57600080fd5b506107f660048036038101906107f19190615840565b61349d565b6040516108039190615962565b60405180910390f35b34801561081857600080fd5b50610833600480360381019061082e919061550a565b6134b4565b005b34801561084157600080fd5b5061085c60048036038101906108579190615840565b61352c565b6040516108729a99989796959493929190615a6e565b60405180910390f35b34801561088757600080fd5b506108a2600480360381019061089d9190615840565b6137b5565b6040516108af9190615998565b60405180910390f35b3480156108c457600080fd5b506108cd613a86565b6040516108da9190615a53565b60405180910390f35b3480156108ef57600080fd5b506108f8613a9a565b6040516109059190615998565b60405180910390f35b34801561091a57600080fd5b506109356004803603810190610930919061547f565b613b38565b604051610942919061597d565b60405180910390f35b34801561095757600080fd5b50610972600480360381019061096d9190615840565b613bcc565b60405161098597969594939291906159ba565b60405180910390f35b6000806000837bffffffffffffffffffffffffffffffffffffffffffffffffffffffff19167bffffffffffffffffffffffffffffffffffffffffffffffffffffffff1916815260200190815260200160002060009054906101000a900460ff169050919050565b600e602052806000526040600020600091509050806000018054600181600116156101000203166002900480601f016020809104026020016040519081016040528092919081815260200182805460018160011615610100020316600290048015610aa15780601f10610a7657610100808354040283529160200191610aa1565b820191906000526020600020905b815481529060010190602001808311610a8457829003601f168201915b505050505090806001018054600181600116156101000203166002900480601f016020809104026020016040519081016040528092919081815260200182805460018160011615610100020316600290048015610b3f5780601f10610b1457610100808354040283529160200191610b3f565b820191906000526020600020905b815481529060010190602001808311610b2257829003601f168201915b505050505090806002018054600181600116156101000203166002900480601f016020809104026020016040519081016040528092919081815260200182805460018160011615610100020316600290048015610bdd5780601f10610bb257610100808354040283529160200191610bdd565b820191906000526020600020905b815481529060010190602001808311610bc057829003601f168201915b505050505090806003018054600181600116156101000203166002900480601f016020809104026020016040519081016040528092919081815260200182805460018160011615610100020316600290048015610c7b5780601f10610c5057610100808354040283529160200191610c7b565b820191906000526020600020905b815481529060010190602001808311610c5e57829003601f168201915b5050505050908060040160009054906101000a900473ffffffffffffffffffffffffffffffffffffffff1690806005018054600181600116156101000203166002900480601f016020809104026020016040519081016040528092919081815260200182805460018160011615610100020316600290048015610d3f5780601f10610d1457610100808354040283529160200191610d3f565b820191906000526020600020905b815481529060010190602001808311610d2257829003601f168201915b505050505090806006018054600181600116156101000203166002900480601f016020809104026020016040519081016040528092919081815260200182805460018160011615610100020316600290048015610ddd5780601f10610db257610100808354040283529160200191610ddd565b820191906000526020600020905b815481529060010190602001808311610dc057829003601f168201915b5050505050905087565b606060068054600181600116156101000203166002900480601f016020809104026020016040519081016040528092919081815260200182805460018160011615610100020316600290048015610e7f5780601f10610e5457610100808354040283529160200191610e7f565b820191906000526020600020905b815481529060010190602001808311610e6257829003601f168201915b5050505050905090565b6000610e9482613fbe565b610ee9576040517f08c379a000000000000000000000000000000000000000000000000000000000815260040180806020018281038252602c815260200180615e86602c913960400191505060405180910390fd5b6004600083815260200190815260200160002060009054906101000a900473ffffffffffffffffffffffffffffffffffffffff169050919050565b6000610f2f82612674565b90508073ffffffffffffffffffffffffffffffffffffffff168373ffffffffffffffffffffffffffffffffffffffff161415610fb6576040517f08c379a0000000000000000000000000000000000000000000000000000000008152600401808060200182810382526021815260200180615f366021913960400191505060405180910390fd5b8073ffffffffffffffffffffffffffffffffffffffff16610fd5613fdb565b73ffffffffffffffffffffffffffffffffffffffff161480611004575061100381610ffe613fdb565b613b38565b5b611059576040517f08c379a0000000000000000000000000000000000000000000000000000000008152600401808060200182810382526038815260200180615dd96038913960400191505060405180910390fd5b6110638383613fe3565b505050565b6013818051602081018201805184825260208301602085012081835280955050505050506000915054906101000a900460ff1681565b60006110aa600261409c565b905090565b60106020528060005260406000206000915054906101000a900460ff1681565b6110e06110da613fdb565b826140b1565b611135576040517f08c379a0000000000000000000000000000000000000000000000000000000008152600401808060200182810382526031815260200180615f576031913960400191505060405180910390fd5b6111408383836141a5565b505050565b600073ffffffffffffffffffffffffffffffffffffffff163373ffffffffffffffffffffffffffffffffffffffff16141561117f57600080fd5b61118881613fbe565b61119157600080fd5b600061119c82612674565b9050600073ffffffffffffffffffffffffffffffffffffffff168173ffffffffffffffffffffffffffffffffffffffff1614156111d857600080fd5b3373ffffffffffffffffffffffffffffffffffffffff168173ffffffffffffffffffffffffffffffffffffffff16141561121157600080fd5b6000601160008481526020019081526020016000206040518061014001604052908160008201548152602001600182018054600181600116156101000203166002900480601f0160208091040260200160405190810160405280929190818152602001828054600181600116156101000203166002900480156112d55780601f106112aa576101008083540402835291602001916112d5565b820191906000526020600020905b8154815290600101906020018083116112b857829003601f168201915b50505050508152602001600282018054600181600116156101000203166002900480601f0160208091040260200160405190810160405280929190818152602001828054600181600116156101000203166002900480156113775780601f1061134c57610100808354040283529160200191611377565b820191906000526020600020905b81548152906001019060200180831161135a57829003601f168201915b50505050508152602001600382018054600181600116156101000203166002900480601f0160208091040260200160405190810160405280929190818152602001828054600181600116156101000203166002900480156114195780601f106113ee57610100808354040283529160200191611419565b820191906000526020600020905b8154815290600101906020018083116113fc57829003601f168201915b505050505081526020016004820160009054906101000a900473ffffffffffffffffffffffffffffffffffffffff1673ffffffffffffffffffffffffffffffffffffffff1673ffffffffffffffffffffffffffffffffffffffff1681526020016005820160009054906101000a900473ffffffffffffffffffffffffffffffffffffffff1673ffffffffffffffffffffffffffffffffffffffff1673ffffffffffffffffffffffffffffffffffffffff1681526020016006820160009054906101000a900473ffffffffffffffffffffffffffffffffffffffff1673ffffffffffffffffffffffffffffffffffffffff1673ffffffffffffffffffffffffffffffffffffffff16815260200160078201548152602001600882015481526020016009820160009054906101000a900460ff16151515158152505090508060e0015134101561156657600080fd5b80610120015161157557600080fd5b6115808233856141a5565b60008160a0015190508073ffffffffffffffffffffffffffffffffffffffff166108fc349081150290604051600060405180830381858888f193505050501580156115cf573d6000803e3d6000fd5b508160a001518260c0019073ffffffffffffffffffffffffffffffffffffffff16908173ffffffffffffffffffffffffffffffffffffffff1681525050338260a0019073ffffffffffffffffffffffffffffffffffffffff16908173ffffffffffffffffffffffffffffffffffffffff168152505060018261010001818151019150818152505060008261012001901515908115158152505081601160008681526020019081526020016000206000820151816000015560208201518160010190805190602001906116a2929190615287565b5060408201518160020190805190602001906116bf929190615287565b5060608201518160030190805190602001906116dc929190615287565b5060808201518160040160006101000a81548173ffffffffffffffffffffffffffffffffffffffff021916908373ffffffffffffffffffffffffffffffffffffffff16021790555060a08201518160050160006101000a81548173ffffffffffffffffffffffffffffffffffffffff021916908373ffffffffffffffffffffffffffffffffffffffff16021790555060c08201518160060160006101000a81548173ffffffffffffffffffffffffffffffffffffffff021916908373ffffffffffffffffffffffffffffffffffffffff16021790555060e0820151816007015561010082015181600801556101208201518160090160006101000a81548160ff02191690831515021790555090505050505050565b600061184482600160008673ffffffffffffffffffffffffffffffffffffffff1673ffffffffffffffffffffffffffffffffffffffff1681526020019081526020016000206143e890919063ffffffff16565b905092915050565b600073ffffffffffffffffffffffffffffffffffffffff163373ffffffffffffffffffffffffffffffffffffffff16141561188657600080fd5b600d600081548092919060010191905055506000600e60008573ffffffffffffffffffffffffffffffffffffffff1673ffffffffffffffffffffffffffffffffffffffff1681526020019081526020016000206040518060e0016040529081600082018054600181600116156101000203166002900480601f01602080910402602001604051908101604052809291908181526020018280546001816001161561010002031660029004801561197d5780601f106119525761010080835404028352916020019161197d565b820191906000526020600020905b81548152906001019060200180831161196057829003601f168201915b50505050508152602001600182018054600181600116156101000203166002900480601f016020809104026020016040519081016040528092919081815260200182805460018160011615610100020316600290048015611a1f5780601f106119f457610100808354040283529160200191611a1f565b820191906000526020600020905b815481529060010190602001808311611a0257829003601f168201915b50505050508152602001600282018054600181600116156101000203166002900480601f016020809104026020016040519081016040528092919081815260200182805460018160011615610100020316600290048015611ac15780601f10611a9657610100808354040283529160200191611ac1565b820191906000526020600020905b815481529060010190602001808311611aa457829003601f168201915b50505050508152602001600382018054600181600116156101000203166002900480601f016020809104026020016040519081016040528092919081815260200182805460018160011615610100020316600290048015611b635780601f10611b3857610100808354040283529160200191611b63565b820191906000526020600020905b815481529060010190602001808311611b4657829003601f168201915b505050505081526020016004820160009054906101000a900473ffffffffffffffffffffffffffffffffffffffff1673ffffffffffffffffffffffffffffffffffffffff1673ffffffffffffffffffffffffffffffffffffffff168152602001600582018054600181600116156101000203166002900480601f016020809104026020016040519081016040528092919081815260200182805460018160011615610100020316600290048015611c5b5780601f10611c3057610100808354040283529160200191611c5b565b820191906000526020600020905b815481529060010190602001808311611c3e57829003601f168201915b50505050508152602001600682018054600181600116156101000203166002900480601f016020809104026020016040519081016040528092919081815260200182805460018160011615610100020316600290048015611cfd5780601f10611cd257610100808354040283529160200191611cfd565b820191906000526020600020905b815481529060010190602001808311611ce057829003601f168201915b5050505050815250509050878160000181905250828160a0018190525086816020018190525085816040018190525084816060018190525083816080019073ffffffffffffffffffffffffffffffffffffffff16908173ffffffffffffffffffffffffffffffffffffffff1681525050601060008573ffffffffffffffffffffffffffffffffffffffff1673ffffffffffffffffffffffffffffffffffffffff16815260200190815260200160002060009054906101000a900460ff16611dc857818160c001819052505b80600f6000600d5481526020019081526020016000206000820151816000019080519060200190611dfa929190615287565b506020820151816001019080519060200190611e17929190615287565b506040820151816002019080519060200190611e34929190615287565b506060820151816003019080519060200190611e51929190615287565b5060808201518160040160006101000a81548173ffffffffffffffffffffffffffffffffffffffff021916908373ffffffffffffffffffffffffffffffffffffffff16021790555060a0820151816005019080519060200190611eb5929190615287565b5060c0820151816006019080519060200190611ed2929190615287565b5090505080600e60008673ffffffffffffffffffffffffffffffffffffffff1673ffffffffffffffffffffffffffffffffffffffff1681526020019081526020016000206000820151816000019080519060200190611f32929190615287565b506020820151816001019080519060200190611f4f929190615287565b506040820151816002019080519060200190611f6c929190615287565b506060820151816003019080519060200190611f89929190615287565b5060808201518160040160006101000a81548173ffffffffffffffffffffffffffffffffffffffff021916908373ffffffffffffffffffffffffffffffffffffffff16021790555060a0820151816005019080519060200190611fed929190615287565b5060c082015181600601908051906020019061200a929190615287565b509050506001601060008673ffffffffffffffffffffffffffffffffffffffff1673ffffffffffffffffffffffffffffffffffffffff16815260200190815260200160002060006101000a81548160ff0219169083151502179055505050505050505050565b61208b838383604051806020016040528060008152506134b4565b505050565b60008061209c83612803565b905080915050919050565b6014818051602081018201805184825260208301602085012081835280955050505050506000915054906101000a900460ff1681565b600d5481565b6000806120fa83600261440290919063ffffffff16565b50905080915050919050565b600c5481565b600073ffffffffffffffffffffffffffffffffffffffff163373ffffffffffffffffffffffffffffffffffffffff16141561214657600080fd5b61214f82613fbe565b61215857600080fd5b600061216383612674565b90503373ffffffffffffffffffffffffffffffffffffffff168173ffffffffffffffffffffffffffffffffffffffff161461219d57600080fd5b6000601160008581526020019081526020016000206040518061014001604052908160008201548152602001600182018054600181600116156101000203166002900480601f0160208091040260200160405190810160405280929190818152602001828054600181600116156101000203166002900480156122615780601f1061223657610100808354040283529160200191612261565b820191906000526020600020905b81548152906001019060200180831161224457829003601f168201915b50505050508152602001600282018054600181600116156101000203166002900480601f0160208091040260200160405190810160405280929190818152602001828054600181600116156101000203166002900480156123035780601f106122d857610100808354040283529160200191612303565b820191906000526020600020905b8154815290600101906020018083116122e657829003601f168201915b50505050508152602001600382018054600181600116156101000203166002900480601f0160208091040260200160405190810160405280929190818152602001828054600181600116156101000203166002900480156123a55780601f1061237a576101008083540402835291602001916123a5565b820191906000526020600020905b81548152906001019060200180831161238857829003601f168201915b505050505081526020016004820160009054906101000a900473ffffffffffffffffffffffffffffffffffffffff1673ffffffffffffffffffffffffffffffffffffffff1673ffffffffffffffffffffffffffffffffffffffff1681526020016005820160009054906101000a900473ffffffffffffffffffffffffffffffffffffffff1673ffffffffffffffffffffffffffffffffffffffff1673ffffffffffffffffffffffffffffffffffffffff1681526020016006820160009054906101000a900473ffffffffffffffffffffffffffffffffffffffff1673ffffffffffffffffffffffffffffffffffffffff1673ffffffffffffffffffffffffffffffffffffffff16815260200160078201548152602001600882015481526020016009820160009054906101000a900460ff1615151515815250509050828160e00181815250508060116000868152602001908152602001600020600082015181600001556020820151816001019080519060200190612525929190615287565b506040820151816002019080519060200190612542929190615287565b50606082015181600301908051906020019061255f929190615287565b5060808201518160040160006101000a81548173ffffffffffffffffffffffffffffffffffffffff021916908373ffffffffffffffffffffffffffffffffffffffff16021790555060a08201518160050160006101000a81548173ffffffffffffffffffffffffffffffffffffffff021916908373ffffffffffffffffffffffffffffffffffffffff16021790555060c08201518160060160006101000a81548173ffffffffffffffffffffffffffffffffffffffff021916908373ffffffffffffffffffffffffffffffffffffffff16021790555060e0820151816007015561010082015181600801556101208201518160090160006101000a81548160ff02191690831515021790555090505050505050565b60006126a482604051806060016040528060298152602001615e3b60299139600261442e9092919063ffffffff16565b9050919050565b606060006126b8836137b5565b905080915050919050565b606060098054600181600116156101000203166002900480601f01602080910402602001604051908101604052809291908181526020018280546001816001161561010002031660029004801561275b5780601f106127305761010080835404028352916020019161275b565b820191906000526020600020905b81548152906001019060200180831161273e57829003601f168201915b5050505050905090565b600b8054600181600116156101000203166002900480601f0160208091040260200160405190810160405280929190818152602001828054600181600116156101000203166002900480156127fb5780601f106127d0576101008083540402835291602001916127fb565b820191906000526020600020905b8154815290600101906020018083116127de57829003601f168201915b505050505081565b60008073ffffffffffffffffffffffffffffffffffffffff168273ffffffffffffffffffffffffffffffffffffffff16141561288a576040517f08c379a000000000000000000000000000000000000000000000000000000000815260040180806020018281038252602a815260200180615e11602a913960400191505060405180910390fd5b6128d1600160008473ffffffffffffffffffffffffffffffffffffffff1673ffffffffffffffffffffffffffffffffffffffff16815260200190815260200160002061444d565b9050919050565b606060078054600181600116156101000203166002900480601f0160208091040260200160405190810160405280929190818152602001828054600181600116156101000203166002900480156129705780601f1061294557610100808354040283529160200191612970565b820191906000526020600020905b81548152906001019060200180831161295357829003601f168201915b5050505050905090565b612982613fdb565b73ffffffffffffffffffffffffffffffffffffffff168273ffffffffffffffffffffffffffffffffffffffff161415612a23576040517f08c379a00000000000000000000000000000000000000000000000000000000081526004018080602001828103825260198152602001807f4552433732313a20617070726f766520746f2063616c6c65720000000000000081525060200191505060405180910390fd5b8060056000612a30613fdb565b73ffffffffffffffffffffffffffffffffffffffff1673ffffffffffffffffffffffffffffffffffffffff16815260200190815260200160002060008473ffffffffffffffffffffffffffffffffffffffff1673ffffffffffffffffffffffffffffffffffffffff16815260200190815260200160002060006101000a81548160ff0219169083151502179055508173ffffffffffffffffffffffffffffffffffffffff16612add613fdb565b73ffffffffffffffffffffffffffffffffffffffff167f17307eab39ab6107e8899845ad3d59bd9653f200f220920489ca2b5937696c318360405180821515815260200191505060405180910390a35050565b600073ffffffffffffffffffffffffffffffffffffffff163373ffffffffffffffffffffffffffffffffffffffff161415612b6a57600080fd5b612b7381613fbe565b612b7c57600080fd5b6000612b8782612674565b90503373ffffffffffffffffffffffffffffffffffffffff168173ffffffffffffffffffffffffffffffffffffffff1614612bc157600080fd5b6000601160008481526020019081526020016000206040518061014001604052908160008201548152602001600182018054600181600116156101000203166002900480601f016020809104026020016040519081016040528092919081815260200182805460018160011615610100020316600290048015612c855780601f10612c5a57610100808354040283529160200191612c85565b820191906000526020600020905b815481529060010190602001808311612c6857829003601f168201915b50505050508152602001600282018054600181600116156101000203166002900480601f016020809104026020016040519081016040528092919081815260200182805460018160011615610100020316600290048015612d275780601f10612cfc57610100808354040283529160200191612d27565b820191906000526020600020905b815481529060010190602001808311612d0a57829003601f168201915b50505050508152602001600382018054600181600116156101000203166002900480601f016020809104026020016040519081016040528092919081815260200182805460018160011615610100020316600290048015612dc95780601f10612d9e57610100808354040283529160200191612dc9565b820191906000526020600020905b815481529060010190602001808311612dac57829003601f168201915b505050505081526020016004820160009054906101000a900473ffffffffffffffffffffffffffffffffffffffff1673ffffffffffffffffffffffffffffffffffffffff1673ffffffffffffffffffffffffffffffffffffffff1681526020016005820160009054906101000a900473ffffffffffffffffffffffffffffffffffffffff1673ffffffffffffffffffffffffffffffffffffffff1673ffffffffffffffffffffffffffffffffffffffff1681526020016006820160009054906101000a900473ffffffffffffffffffffffffffffffffffffffff1673ffffffffffffffffffffffffffffffffffffffff1673ffffffffffffffffffffffffffffffffffffffff16815260200160078201548152602001600882015481526020016009820160009054906101000a900460ff161515151581525050905080610120015115612f2757600081610120019015159081151581525050612f3a565b6001816101200190151590811515815250505b8060116000858152602001908152602001600020600082015181600001556020820151816001019080519060200190612f74929190615287565b506040820151816002019080519060200190612f91929190615287565b506060820151816003019080519060200190612fae929190615287565b5060808201518160040160006101000a81548173ffffffffffffffffffffffffffffffffffffffff021916908373ffffffffffffffffffffffffffffffffffffffff16021790555060a08201518160050160006101000a81548173ffffffffffffffffffffffffffffffffffffffff021916908373ffffffffffffffffffffffffffffffffffffffff16021790555060c08201518160060160006101000a81548173ffffffffffffffffffffffffffffffffffffffff021916908373ffffffffffffffffffffffffffffffffffffffff16021790555060e0820151816007015561010082015181600801556101208201518160090160006101000a81548160ff021916908315150217905550905050505050565b6012818051602081018201805184825260208301602085012081835280955050505050506000915054906101000a900460ff1681565b600c60008154809291906001019190505550613115600c54613fbe565b1561311f57600080fd5b60148360405161312f919061594b565b908152602001604051809103902060009054906101000a900460ff161561315557600080fd5b601284604051613165919061594b565b908152602001604051809103902060009054906101000a900460ff161561318b57600080fd5b60138160405161319b919061594b565b908152602001604051809103902060009054906101000a900460ff16156131c157600080fd5b6131cd33600c54614462565b6131d9600c5484614656565b60016014846040516131eb919061594b565b908152602001604051809103902060006101000a81548160ff0219169083151502179055506001601382604051613222919061594b565b908152602001604051809103902060006101000a81548160ff0219169083151502179055506001601285604051613259919061594b565b908152602001604051809103902060006101000a81548160ff0219169083151502179055506000604051806101400160405280600c5481526020018681526020018381526020018581526020013373ffffffffffffffffffffffffffffffffffffffff1681526020013373ffffffffffffffffffffffffffffffffffffffff168152602001600073ffffffffffffffffffffffffffffffffffffffff168152602001848152602001600081526020016000151581525090508060116000600c54815260200190815260200160002060008201518160000155602082015181600101908051906020019061334d929190615287565b50604082015181600201908051906020019061336a929190615287565b506060820151816003019080519060200190613387929190615287565b5060808201518160040160006101000a81548173ffffffffffffffffffffffffffffffffffffffff021916908373ffffffffffffffffffffffffffffffffffffffff16021790555060a08201518160050160006101000a81548173ffffffffffffffffffffffffffffffffffffffff021916908373ffffffffffffffffffffffffffffffffffffffff16021790555060c08201518160060160006101000a81548173ffffffffffffffffffffffffffffffffffffffff021916908373ffffffffffffffffffffffffffffffffffffffff16021790555060e0820151816007015561010082015181600801556101208201518160090160006101000a81548160ff0219169083151502179055509050505050505050565b6000806134a983612674565b905080915050919050565b6134c56134bf613fdb565b836140b1565b61351a576040517f08c379a0000000000000000000000000000000000000000000000000000000008152600401808060200182810382526031815260200180615f576031913960400191505060405180910390fd5b613526848484846146e0565b50505050565b6011602052806000526040600020600091509050806000015490806001018054600181600116156101000203166002900480601f0160208091040260200160405190810160405280929190818152602001828054600181600116156101000203166002900480156135de5780601f106135b3576101008083540402835291602001916135de565b820191906000526020600020905b8154815290600101906020018083116135c157829003601f168201915b505050505090806002018054600181600116156101000203166002900480601f01602080910402602001604051908101604052809291908181526020018280546001816001161561010002031660029004801561367c5780601f106136515761010080835404028352916020019161367c565b820191906000526020600020905b81548152906001019060200180831161365f57829003601f168201915b505050505090806003018054600181600116156101000203166002900480601f01602080910402602001604051908101604052809291908181526020018280546001816001161561010002031660029004801561371a5780601f106136ef5761010080835404028352916020019161371a565b820191906000526020600020905b8154815290600101906020018083116136fd57829003601f168201915b5050505050908060040160009054906101000a900473ffffffffffffffffffffffffffffffffffffffff16908060050160009054906101000a900473ffffffffffffffffffffffffffffffffffffffff16908060060160009054906101000a900473ffffffffffffffffffffffffffffffffffffffff16908060070154908060080154908060090160009054906101000a900460ff1690508a565b60606137c082613fbe565b613815576040517f08c379a000000000000000000000000000000000000000000000000000000000815260040180806020018281038252602f815260200180615f07602f913960400191505060405180910390fd5b6000600860008481526020019081526020016000208054600181600116156101000203166002900480601f0160208091040260200160405190810160405280929190818152602001828054600181600116156101000203166002900480156138be5780601f10613893576101008083540402835291602001916138be565b820191906000526020600020905b8154815290600101906020018083116138a157829003601f168201915b5050505050905060006138cf6126c3565b90506000815114156138e5578192505050613a81565b6000825111156139b65780826040516020018083805190602001908083835b602083106139275780518252602082019150602081019050602083039250613904565b6001836020036101000a03801982511681845116808217855250505050505090500182805190602001908083835b602083106139785780518252602082019150602081019050602083039250613955565b6001836020036101000a0380198251168184511680821785525050505050509050019250505060405160208183030381529060405292505050613a81565b806139c085614752565b6040516020018083805190602001908083835b602083106139f657805182526020820191506020810190506020830392506139d3565b6001836020036101000a03801982511681845116808217855250505050505090500182805190602001908083835b60208310613a475780518252602082019150602081019050602083039250613a24565b6001836020036101000a03801982511681845116808217855250505050505090500192505050604051602081830303815290604052925050505b919050565b600080613a9161109e565b90508091505090565b600a8054600181600116156101000203166002900480601f016020809104026020016040519081016040528092919081815260200182805460018160011615610100020316600290048015613b305780601f10613b0557610100808354040283529160200191613b30565b820191906000526020600020905b815481529060010190602001808311613b1357829003601f168201915b505050505081565b6000600560008473ffffffffffffffffffffffffffffffffffffffff1673ffffffffffffffffffffffffffffffffffffffff16815260200190815260200160002060008373ffffffffffffffffffffffffffffffffffffffff1673ffffffffffffffffffffffffffffffffffffffff16815260200190815260200160002060009054906101000a900460ff16905092915050565b600f602052806000526040600020600091509050806000018054600181600116156101000203166002900480601f016020809104026020016040519081016040528092919081815260200182805460018160011615610100020316600290048015613c785780601f10613c4d57610100808354040283529160200191613c78565b820191906000526020600020905b815481529060010190602001808311613c5b57829003601f168201915b505050505090806001018054600181600116156101000203166002900480601f016020809104026020016040519081016040528092919081815260200182805460018160011615610100020316600290048015613d165780601f10613ceb57610100808354040283529160200191613d16565b820191906000526020600020905b815481529060010190602001808311613cf957829003601f168201915b505050505090806002018054600181600116156101000203166002900480601f016020809104026020016040519081016040528092919081815260200182805460018160011615610100020316600290048015613db45780601f10613d8957610100808354040283529160200191613db4565b820191906000526020600020905b815481529060010190602001808311613d9757829003601f168201915b505050505090806003018054600181600116156101000203166002900480601f016020809104026020016040519081016040528092919081815260200182805460018160011615610100020316600290048015613e525780601f10613e2757610100808354040283529160200191613e52565b820191906000526020600020905b815481529060010190602001808311613e3557829003601f168201915b5050505050908060040160009054906101000a900473ffffffffffffffffffffffffffffffffffffffff1690806005018054600181600116156101000203166002900480601f016020809104026020016040519081016040528092919081815260200182805460018160011615610100020316600290048015613f165780601f10613eeb57610100808354040283529160200191613f16565b820191906000526020600020905b815481529060010190602001808311613ef957829003601f168201915b505050505090806006018054600181600116156101000203166002900480601f016020809104026020016040519081016040528092919081815260200182805460018160011615610100020316600290048015613fb45780601f10613f8957610100808354040283529160200191613fb4565b820191906000526020600020905b815481529060010190602001808311613f9757829003601f168201915b5050505050905087565b6000613fd482600261489990919063ffffffff16565b9050919050565b600033905090565b816004600083815260200190815260200160002060006101000a81548173ffffffffffffffffffffffffffffffffffffffff021916908373ffffffffffffffffffffffffffffffffffffffff160217905550808273ffffffffffffffffffffffffffffffffffffffff1661405683612674565b73ffffffffffffffffffffffffffffffffffffffff167f8c5be1e5ebec7d5bd14f71427d1e84f3dd0314c0f7b2291e5b200ac8c7c3b92560405160405180910390a45050565b60006140aa826000016148b3565b9050919050565b60006140bc82613fbe565b614111576040517f08c379a000000000000000000000000000000000000000000000000000000000815260040180806020018281038252602c815260200180615dad602c913960400191505060405180910390fd5b600061411c83612674565b90508073ffffffffffffffffffffffffffffffffffffffff168473ffffffffffffffffffffffffffffffffffffffff16148061418b57508373ffffffffffffffffffffffffffffffffffffffff1661417384610e89565b73ffffffffffffffffffffffffffffffffffffffff16145b8061419c575061419b8185613b38565b5b91505092915050565b8273ffffffffffffffffffffffffffffffffffffffff166141c582612674565b73ffffffffffffffffffffffffffffffffffffffff1614614231576040517f08c379a0000000000000000000000000000000000000000000000000000000008152600401808060200182810382526029815260200180615ede6029913960400191505060405180910390fd5b600073ffffffffffffffffffffffffffffffffffffffff168273ffffffffffffffffffffffffffffffffffffffff1614156142b7576040517f08c379a0000000000000000000000000000000000000000000000000000000008152600401808060200182810382526024815260200180615d636024913960400191505060405180910390fd5b6142c28383836148c4565b6142cd600082613fe3565b61431e81600160008673ffffffffffffffffffffffffffffffffffffffff1673ffffffffffffffffffffffffffffffffffffffff1681526020019081526020016000206148c990919063ffffffff16565b5061437081600160008573ffffffffffffffffffffffffffffffffffffffff1673ffffffffffffffffffffffffffffffffffffffff1681526020019081526020016000206148e390919063ffffffff16565b50614387818360026148fd9092919063ffffffff16565b50808273ffffffffffffffffffffffffffffffffffffffff168473ffffffffffffffffffffffffffffffffffffffff167fddf252ad1be2c89b69c2b068fc378daa952ba7f163c4a11628f55a4df523b3ef60405160405180910390a4505050565b60006143f78360000183614932565b60001c905092915050565b60008060008061441586600001866149b5565b915091508160001c8160001c9350935050509250929050565b6000614441846000018460001b84614a4e565b60001c90509392505050565b600061445b82600001614b44565b9050919050565b600073ffffffffffffffffffffffffffffffffffffffff168273ffffffffffffffffffffffffffffffffffffffff161415614505576040517f08c379a00000000000000000000000000000000000000000000000000000000081526004018080602001828103825260208152602001807f4552433732313a206d696e7420746f20746865207a65726f206164647265737381525060200191505060405180910390fd5b61450e81613fbe565b15614581576040517f08c379a000000000000000000000000000000000000000000000000000000000815260040180806020018281038252601c8152602001807f4552433732313a20746f6b656e20616c7265616479206d696e7465640000000081525060200191505060405180910390fd5b61458d600083836148c4565b6145de81600160008573ffffffffffffffffffffffffffffffffffffffff1673ffffffffffffffffffffffffffffffffffffffff1681526020019081526020016000206148e390919063ffffffff16565b506145f5818360026148fd9092919063ffffffff16565b50808273ffffffffffffffffffffffffffffffffffffffff16600073ffffffffffffffffffffffffffffffffffffffff167fddf252ad1be2c89b69c2b068fc378daa952ba7f163c4a11628f55a4df523b3ef60405160405180910390a45050565b61465f82613fbe565b6146b4576040517f08c379a000000000000000000000000000000000000000000000000000000000815260040180806020018281038252602c815260200180615eb2602c913960400191505060405180910390fd5b806008600084815260200190815260200160002090805190602001906146db929190615287565b505050565b6146eb8484846141a5565b6146f784848484614b55565b61474c576040517f08c379a0000000000000000000000000000000000000000000000000000000008152600401808060200182810382526032815260200180615d316032913960400191505060405180910390fd5b50505050565b6060600082141561479a576040518060400160405280600181526020017f30000000000000000000000000000000000000000000000000000000000000008152509050614894565b600082905060005b600082146147c4578080600101915050600a82816147bc57fe5b0491506147a2565b60008167ffffffffffffffff811180156147dd57600080fd5b506040519080825280601f01601f1916602001820160405280156148105781602001600182028036833780820191505090505b50905060006001830390508593505b6000841461488c57600a848161483157fe5b0660300160f81b8282806001900393508151811061484b57fe5b60200101907effffffffffffffffffffffffffffffffffffffffffffffffffffffffffffff1916908160001a905350600a848161488457fe5b04935061481f565b819450505050505b919050565b60006148ab836000018360001b614d6e565b905092915050565b600081600001805490509050919050565b505050565b60006148db836000018360001b614d91565b905092915050565b60006148f5836000018360001b614e79565b905092915050565b6000614929846000018460001b8473ffffffffffffffffffffffffffffffffffffffff1660001b614ee9565b90509392505050565b600081836000018054905011614993576040517f08c379a0000000000000000000000000000000000000000000000000000000008152600401808060200182810382526022815260200180615d0f6022913960400191505060405180910390fd5b8260000182815481106149a257fe5b9060005260206000200154905092915050565b60008082846000018054905011614a17576040517f08c379a0000000000000000000000000000000000000000000000000000000008152600401808060200182810382526022815260200180615e646022913960400191505060405180910390fd5b6000846000018481548110614a2857fe5b906000526020600020906002020190508060000154816001015492509250509250929050565b60008084600101600085815260200190815260200160002054905060008114158390614b15576040517f08c379a00000000000000000000000000000000000000000000000000000000081526004018080602001828103825283818151815260200191508051906020019080838360005b83811015614ada578082015181840152602081019050614abf565b50505050905090810190601f168015614b075780820380516001836020036101000a031916815260200191505b509250505060405180910390fd5b50846000016001820381548110614b2857fe5b9060005260206000209060020201600101549150509392505050565b600081600001805490509050919050565b6000614b768473ffffffffffffffffffffffffffffffffffffffff16614fc5565b614b835760019050614d66565b6000614ced63150b7a0260e01b614b98613fdb565b888787604051602401808573ffffffffffffffffffffffffffffffffffffffff1681526020018473ffffffffffffffffffffffffffffffffffffffff16815260200183815260200180602001828103825283818151815260200191508051906020019080838360005b83811015614c1c578082015181840152602081019050614c01565b50505050905090810190601f168015614c495780820380516001836020036101000a031916815260200191505b5095505050505050604051602081830303815290604052907bffffffffffffffffffffffffffffffffffffffffffffffffffffffff19166020820180517bffffffffffffffffffffffffffffffffffffffffffffffffffffffff8381831617835250505050604051806060016040528060328152602001615d31603291398773ffffffffffffffffffffffffffffffffffffffff16614fd89092919063ffffffff16565b90506000818060200190516020811015614d0657600080fd5b8101908080519060200190929190505050905063150b7a0260e01b7bffffffffffffffffffffffffffffffffffffffffffffffffffffffff1916817bffffffffffffffffffffffffffffffffffffffffffffffffffffffff191614925050505b949350505050565b600080836001016000848152602001908152602001600020541415905092915050565b60008083600101600084815260200190815260200160002054905060008114614e6d5760006001820390506000600186600001805490500390506000866000018281548110614ddc57fe5b9060005260206000200154905080876000018481548110614df957fe5b9060005260206000200181905550600183018760010160008381526020019081526020016000208190555086600001805480614e3157fe5b60019003818190600052602060002001600090559055866001016000878152602001908152602001600020600090556001945050505050614e73565b60009150505b92915050565b6000614e858383614ff0565b614ede578260000182908060018154018082558091505060019003906000526020600020016000909190919091505582600001805490508360010160008481526020019081526020016000208190555060019050614ee3565b600090505b92915050565b6000808460010160008581526020019081526020016000205490506000811415614f9057846000016040518060400160405280868152602001858152509080600181540180825580915050600190039060005260206000209060020201600090919091909150600082015181600001556020820151816001015550508460000180549050856001016000868152602001908152602001600020819055506001915050614fbe565b82856000016001830381548110614fa357fe5b90600052602060002090600202016001018190555060009150505b9392505050565b600080823b905060008111915050919050565b6060614fe78484600085615013565b90509392505050565b600080836001016000848152602001908152602001600020541415905092915050565b60608247101561506e576040517f08c379a0000000000000000000000000000000000000000000000000000000008152600401808060200182810382526026815260200180615d876026913960400191505060405180910390fd5b61507785614fc5565b6150e9576040517f08c379a000000000000000000000000000000000000000000000000000000000815260040180806020018281038252601d8152602001807f416464726573733a2063616c6c20746f206e6f6e2d636f6e747261637400000081525060200191505060405180910390fd5b6000808673ffffffffffffffffffffffffffffffffffffffff1685876040518082805190602001908083835b602083106151385780518252602082019150602081019050602083039250615115565b6001836020036101000a03801982511681845116808217855250505050505090500191505060006040518083038185875af1925050503d806000811461519a576040519150601f19603f3d011682016040523d82523d6000602084013e61519f565b606091505b50915091506151af8282866151bb565b92505050949350505050565b606083156151cb57829050615280565b6000835111156151de5782518084602001fd5b816040517f08c379a00000000000000000000000000000000000000000000000000000000081526004018080602001828103825283818151815260200191508051906020019080838360005b8381101561524557808201518184015260208101905061522a565b50505050905090810190601f1680156152725780820380516001836020036101000a031916815260200191505b509250505060405180910390fd5b9392505050565b828054600181600116156101000203166002900490600052602060002090601f0160209004810192826152bd5760008555615304565b82601f106152d657805160ff1916838001178555615304565b82800160010185558215615304579182015b828111156153035782518255916020019190600101906152e8565b5b5090506153119190615315565b5090565b5b8082111561532e576000816000905550600101615316565b5090565b600061534561534084615b50565b615b1f565b90508281526020810184848401111561535d57600080fd5b615368848285615c5d565b509392505050565b600061538361537e84615b80565b615b1f565b90508281526020810184848401111561539b57600080fd5b6153a6848285615c5d565b509392505050565b6000813590506153bd81615cb2565b92915050565b6000813590506153d281615cc9565b92915050565b6000813590506153e781615ce0565b92915050565b600082601f8301126153fe57600080fd5b813561540e848260208601615332565b91505092915050565b600082601f83011261542857600080fd5b8135615438848260208601615370565b91505092915050565b60008135905061545081615cf7565b92915050565b60006020828403121561546857600080fd5b6000615476848285016153ae565b91505092915050565b6000806040838503121561549257600080fd5b60006154a0858286016153ae565b92505060206154b1858286016153ae565b9150509250929050565b6000806000606084860312156154d057600080fd5b60006154de868287016153ae565b93505060206154ef868287016153ae565b925050604061550086828701615441565b9150509250925092565b6000806000806080858703121561552057600080fd5b600061552e878288016153ae565b945050602061553f878288016153ae565b935050604061555087828801615441565b925050606085013567ffffffffffffffff81111561556d57600080fd5b615579878288016153ed565b91505092959194509250565b6000806040838503121561559857600080fd5b60006155a6858286016153ae565b92505060206155b7858286016153c3565b9150509250929050565b600080604083850312156155d457600080fd5b60006155e2858286016153ae565b92505060206155f385828601615441565b9150509250929050565b60006020828403121561560f57600080fd5b600061561d848285016153d8565b91505092915050565b60006020828403121561563857600080fd5b600082013567ffffffffffffffff81111561565257600080fd5b61565e84828501615417565b91505092915050565b600080600080600080600060e0888a03121561568257600080fd5b600088013567ffffffffffffffff81111561569c57600080fd5b6156a88a828b01615417565b975050602088013567ffffffffffffffff8111156156c557600080fd5b6156d18a828b01615417565b965050604088013567ffffffffffffffff8111156156ee57600080fd5b6156fa8a828b01615417565b955050606088013567ffffffffffffffff81111561571757600080fd5b6157238a828b01615417565b94505060806157348a828b016153ae565b93505060a088013567ffffffffffffffff81111561575157600080fd5b61575d8a828b01615417565b92505060c088013567ffffffffffffffff81111561577a57600080fd5b6157868a828b01615417565b91505092959891949750929550565b600080600080608085870312156157ab57600080fd5b600085013567ffffffffffffffff8111156157c557600080fd5b6157d187828801615417565b945050602085013567ffffffffffffffff8111156157ee57600080fd5b6157fa87828801615417565b935050604061580b87828801615441565b925050606085013567ffffffffffffffff81111561582857600080fd5b61583487828801615417565b91505092959194509250565b60006020828403121561585257600080fd5b600061586084828501615441565b91505092915050565b6000806040838503121561587c57600080fd5b600061588a85828601615441565b925050602061589b85828601615441565b9150509250929050565b6158ae81615be9565b82525050565b6158bd81615bd7565b82525050565b6158cc81615bfb565b82525050565b60006158dd82615bb0565b6158e78185615bbb565b93506158f7818560208601615c6c565b61590081615ca1565b840191505092915050565b600061591682615bb0565b6159208185615bcc565b9350615930818560208601615c6c565b80840191505092915050565b61594581615c53565b82525050565b6000615957828461590b565b915081905092915050565b600060208201905061597760008301846158b4565b92915050565b600060208201905061599260008301846158c3565b92915050565b600060208201905081810360008301526159b281846158d2565b905092915050565b600060e08201905081810360008301526159d4818a6158d2565b905081810360208301526159e881896158d2565b905081810360408301526159fc81886158d2565b90508181036060830152615a1081876158d2565b9050615a1f60808301866158b4565b81810360a0830152615a3181856158d2565b905081810360c0830152615a4581846158d2565b905098975050505050505050565b6000602082019050615a68600083018461593c565b92915050565b600061014082019050615a84600083018d61593c565b8181036020830152615a96818c6158d2565b90508181036040830152615aaa818b6158d2565b90508181036060830152615abe818a6158d2565b9050615acd60808301896158a5565b615ada60a08301886158a5565b615ae760c08301876158a5565b615af460e083018661593c565b615b0261010083018561593c565b615b106101208301846158c3565b9b9a5050505050505050505050565b6000604051905081810181811067ffffffffffffffff82111715615b4657615b45615c9f565b5b8060405250919050565b600067ffffffffffffffff821115615b6b57615b6a615c9f565b5b601f19601f8301169050602081019050919050565b600067ffffffffffffffff821115615b9b57615b9a615c9f565b5b601f19601f8301169050602081019050919050565b600081519050919050565b600082825260208201905092915050565b600081905092915050565b6000615be282615c33565b9050919050565b6000615bf482615c33565b9050919050565b60008115159050919050565b60007fffffffff0000000000000000000000000000000000000000000000000000000082169050919050565b600073ffffffffffffffffffffffffffffffffffffffff82169050919050565b6000819050919050565b82818337600083830152505050565b60005b83811015615c8a578082015181840152602081019050615c6f565b83811115615c99576000848401525b50505050565bfe5b6000601f19601f8301169050919050565b615cbb81615bd7565b8114615cc657600080fd5b50565b615cd281615bfb565b8114615cdd57600080fd5b50565b615ce981615c07565b8114615cf457600080fd5b50565b615d0081615c53565b8114615d0b57600080fd5b5056fe456e756d657261626c655365743a20696e646578206f7574206f6620626f756e64734552433732313a207472616e7366657220746f206e6f6e20455243373231526563656976657220696d706c656d656e7465724552433732313a207472616e7366657220746f20746865207a65726f2061646472657373416464726573733a20696e73756666696369656e742062616c616e636520666f722063616c6c4552433732313a206f70657261746f7220717565727920666f72206e6f6e6578697374656e7420746f6b656e4552433732313a20617070726f76652063616c6c6572206973206e6f74206f776e6572206e6f7220617070726f76656420666f7220616c6c4552433732313a2062616c616e636520717565727920666f7220746865207a65726f20616464726573734552433732313a206f776e657220717565727920666f72206e6f6e6578697374656e7420746f6b656e456e756d657261626c654d61703a20696e646578206f7574206f6620626f756e64734552433732313a20617070726f76656420717565727920666f72206e6f6e6578697374656e7420746f6b656e4552433732314d657461646174613a2055524920736574206f66206e6f6e6578697374656e7420746f6b656e4552433732313a207472616e73666572206f6620746f6b656e2074686174206973206e6f74206f776e4552433732314d657461646174613a2055524920717565727920666f72206e6f6e6578697374656e7420746f6b656e4552433732313a20617070726f76616c20746f2063757272656e74206f776e65724552433732313a207472616e736665722063616c6c6572206973206e6f74206f776e6572206e6f7220617070726f766564a2646970667358221220065c15969c486a14c9716ab281943475198f7a1970533063a620dba078404eab64736f6c63430007060033",
  "immutableReferences": {},
  "source": "// SPDX-License-Identifier: MIT\r\npragma solidity >=0.4.21 <0.8.0;\r\npragma abicoder v2;\r\n\r\n// import ERC721 iterface\r\nimport \"./ERC721.sol\";\r\n\r\n// NFT smart contract inherits ERC721 interface\r\ncontract Marketplace is ERC721 {\r\n\r\n  // this contract's token collection name\r\n  string public collectionName;\r\n\r\n  // this contract's token symbol\r\n  string public collectionNameSymbol;\r\n\r\n  // total number of NFT minted\r\n  uint256 public NFTCounter;\r\n\r\n  // total number of User Created\r\n  uint256 public UserCounter;\r\n\r\n  // define NFT struct\r\n  struct NFT {\r\n    uint256 tokenId;\r\n    string tokenName;\r\n    string tokenImage;\r\n    string tokenURI;\r\n    address payable mintedBy;\r\n    address payable currentOwner;\r\n    address payable previousOwner;\r\n    uint256 price;\r\n    uint256 numberOfTransfers;\r\n    bool forSale;\r\n  }\r\n\r\n  struct UserProfile {\r\n    string bannerHash;\r\n    string imageHash;\r\n    string name;\r\n    string description;\r\n    address user;\r\n    string email;\r\n    string timeOfRegistry;\r\n  }\r\n\r\n  // map user addresses to their profile\r\n  mapping(address => UserProfile) public allProfiles;\r\n  mapping(uint256 => UserProfile) public allProfilesDetails;\r\n\r\n  // check whether profile isset or not\r\n  mapping(address => bool) public isProfileSet;\r\n  // map NFT's token id to NFT\r\n  mapping(uint256 => NFT) public allNFTs;\r\n\r\n  // check if token name exists\r\n  mapping(string => bool) public tokenNameExists;\r\n\r\n  // mapping(string => bool) public colorExists;\r\n   mapping(string => bool) public tokenImageExists;\r\n\r\n  // check if token URI exists\r\n  mapping(string => bool) public tokenURIExists;\r\n\r\n  // initialize contract while deployment with contract's collection name and token\r\n  constructor() ERC721(\"NFT Collection\", \"NFT\") {\r\n    collectionName = name();\r\n    collectionNameSymbol = symbol();\r\n  }\r\n\r\n  // mint a new NFT\r\n  function mintNFT(string memory _name, string memory _tokenURI, uint256 _price, string memory _imageHash) external {\r\n\r\n    // check if thic fucntion caller is not an zero address account\r\n    // require(msg.sender != address(0));\r\n\r\n    NFTCounter ++;\r\n    \r\n    \r\n    require(!_exists(NFTCounter));\r\n\r\n    require(!tokenURIExists[_tokenURI]);\r\n\r\n    require(!tokenNameExists[_name]);\r\n\r\n    require(!tokenImageExists[_imageHash]);\r\n\r\n    // mint the token\r\n    _mint(msg.sender, NFTCounter);\r\n\r\n    _setTokenURI(NFTCounter, _tokenURI);\r\n\r\n    tokenURIExists[_tokenURI] = true;\r\n\r\n    tokenImageExists[_imageHash] = true;\r\n\r\n    // make token name passed as exists\r\n    tokenNameExists[_name] = true;\r\n\r\n    // create a new NFT (struct) and pass in new values\r\n    NFT memory newNFT = NFT(\r\n      NFTCounter,\r\n      _name,\r\n      _imageHash,\r\n      _tokenURI,\r\n      msg.sender,\r\n      msg.sender,\r\n      address(0),\r\n      _price,\r\n      0,\r\n      false);\r\n    \r\n    // add the token id and it's nft to allNFT mapping\r\n    allNFTs[NFTCounter] = newNFT;\r\n  }\r\n\r\n  // get owner of the token\r\n  function getTokenOwner(uint256 _tokenId) public view returns(address) {\r\n    address _tokenOwner = ownerOf(_tokenId);\r\n    return _tokenOwner;\r\n  }\r\n\r\n  // get metadata of the token\r\n  function getTokenMetaData(uint _tokenId) public view returns(string memory) {\r\n    string memory tokenMetaData = tokenURI(_tokenId);\r\n    return tokenMetaData;\r\n  }\r\n\r\n  // get total number of tokens minted so far\r\n  function getNumberOfTokensMinted() public view returns(uint256) {\r\n    uint256 totalNumberOfTokensMinted = totalSupply();\r\n    return totalNumberOfTokensMinted;\r\n  }\r\n\r\n  // get total number of tokens owned by an address\r\n  function getTotalNumberOfTokensOwnedByAnAddress(address _owner) public view returns(uint256) {\r\n    uint256 totalNumberOfTokensOwned = balanceOf(_owner);\r\n    return totalNumberOfTokensOwned;\r\n  }\r\n\r\n  // check if the token already exists\r\n  // function getTokenExists(uint256 _tokenId) public view returns(bool) {\r\n  //   bool tokenExists = _exists(_tokenId);\r\n  //   return tokenExists;\r\n  // }\r\n\r\n  // by a token by passing in the token's id\r\n  function buyToken(uint256 _tokenId) public payable {\r\n    \r\n    // check if the function caller is not an zero account address\r\n    require(msg.sender != address(0));\r\n    \r\n    // check if the token id of the token being bought exists or not\r\n    require(_exists(_tokenId));\r\n    \r\n    // get the token's owner\r\n    address tokenOwner = ownerOf(_tokenId);\r\n    \r\n    // token's owner should not be an zero address account\r\n    require(tokenOwner != address(0));\r\n    \r\n    // the one who wants to buy the token should not be the token's owner\r\n    require(tokenOwner != msg.sender);\r\n    \r\n    // get that token from all NFT mapping and create a memory of it defined as (struct => NFT)\r\n    NFT memory nft = allNFTs[_tokenId];\r\n    \r\n    // price sent in to buy should be equal to or more than the token's price\r\n    require(msg.value >= nft.price);\r\n    \r\n    // token should be for sale\r\n    require(nft.forSale);\r\n    \r\n    // transfer the token from owner to the caller of the function (buyer)\r\n    _transfer(tokenOwner, msg.sender, _tokenId);\r\n    \r\n    // get owner of the token\r\n    address payable sendTo = nft.currentOwner;\r\n    \r\n    // send token's worth of ethers to the owner\r\n    sendTo.transfer(msg.value);\r\n    \r\n    // update the token's previous owner\r\n    nft.previousOwner = nft.currentOwner;\r\n    \r\n    // update the token's current owner\r\n    nft.currentOwner = msg.sender;\r\n    \r\n    // update the how many times this token was transfered\r\n    nft.numberOfTransfers += 1;\r\n\r\n    // toggle the forSale parameter of token\r\n    nft.forSale = false;\r\n    \r\n    // set and update that token in the mapping\r\n    allNFTs[_tokenId] = nft;\r\n  }\r\n\r\n  function changeTokenPrice(uint256 _tokenId, uint256 _newPrice) public {\r\n    \r\n    // require caller of the function is not an empty address\r\n    require(msg.sender != address(0));\r\n    \r\n    // require that token should exist\r\n    require(_exists(_tokenId));\r\n    \r\n    // get the token's owner\r\n    address tokenOwner = ownerOf(_tokenId);\r\n    \r\n    // check that token's owner should be equal to the caller of the function\r\n    require(tokenOwner == msg.sender);\r\n    \r\n    // get that token from allNFT mapping and create a memory of it defined as (struct => NFT)\r\n    NFT memory nft = allNFTs[_tokenId];\r\n    \r\n    // update token's price with new price\r\n    nft.price = _newPrice;\r\n    \r\n    // set and update that token in the mapping\r\n    allNFTs[_tokenId] = nft;\r\n  }\r\n\r\n  // switch between set for sale and set not for sale\r\n  function toggleForSale(uint256 _tokenId) public {\r\n    \r\n    // require caller of the function is not an empty address\r\n    require(msg.sender != address(0));\r\n    \r\n    // require that token should exist\r\n    require(_exists(_tokenId));\r\n    \r\n    // get the token's owner\r\n    address tokenOwner = ownerOf(_tokenId);\r\n    \r\n    // check that token's owner should be equal to the caller of the function\r\n    require(tokenOwner == msg.sender);\r\n    \r\n    // get that token from all NFT mapping and create a memory of it defined as (struct => NFT)\r\n    NFT memory nft = allNFTs[_tokenId];\r\n    \r\n    // if token's forSale is false make it true and vice versa\r\n    if(nft.forSale) { nft.forSale = false; } else {nft.forSale = true;}\r\n    \r\n    // set and update that token in the mapping\r\n    allNFTs[_tokenId] = nft;\r\n  }\r\n\r\n  function addUserProfile(string memory _bannerHash,string memory _imageHash, string memory _name,string memory _description,address _user,string memory _email,string memory _timestamp) external {\r\n    // require caller of the function is not an empty address\r\n      require(msg.sender != address(0));\r\n      \r\n      UserCounter ++;\r\n      \r\n      UserProfile memory userprofile = allProfiles[_user];\r\n      \r\n      userprofile.bannerHash=_bannerHash;\r\n      userprofile.email=_email;\r\n      userprofile.imageHash=_imageHash;\r\n      userprofile.name=_name;\r\n      userprofile.description=_description;\r\n      userprofile.user=_user;\r\n      // add the user's address and it's profile to all allProfiles mapping\r\n      if (!isProfileSet[_user]){\r\n        userprofile.timeOfRegistry = _timestamp;\r\n      }\r\n    \r\n\r\n      allProfilesDetails[UserCounter] = userprofile;\r\n      allProfiles[_user] = userprofile;\r\n      isProfileSet[_user] = true;\r\n    }\r\n\r\n  }\r\n\r\n",
  "sourcePath": "C:\\Users\\Harsh\\Blockchain\\DeepSpace\\src\\contracts\\Marketplace.sol",
  "compiler": {
    "name": "solc",
    "version": "0.7.6+commit.7338295f.Emscripten.clang"
  },
  "schemaVersion": "3.4.4",
  "updatedAt": "2022-06-05T13:49:21.768Z",
  "networkType": "ethereum",
  "devdoc": {
    "kind": "dev",
    "methods": {
      "approve(address,uint256)": {
        "details": "See {IERC721-approve}."
      },
      "balanceOf(address)": {
        "details": "See {IERC721-balanceOf}."
      },
      "baseURI()": {
        "details": "Returns the base URI set via {_setBaseURI}. This will be automatically added as a prefix in {tokenURI} to each token's URI, or to the token ID if no specific URI is set for that token ID."
      },
      "getApproved(uint256)": {
        "details": "See {IERC721-getApproved}."
      },
      "isApprovedForAll(address,address)": {
        "details": "See {IERC721-isApprovedForAll}."
      },
      "name()": {
        "details": "See {IERC721Metadata-name}."
      },
      "ownerOf(uint256)": {
        "details": "See {IERC721-ownerOf}."
      },
      "safeTransferFrom(address,address,uint256)": {
        "details": "See {IERC721-safeTransferFrom}."
      },
      "safeTransferFrom(address,address,uint256,bytes)": {
        "details": "See {IERC721-safeTransferFrom}."
      },
      "setApprovalForAll(address,bool)": {
        "details": "See {IERC721-setApprovalForAll}."
      },
      "supportsInterface(bytes4)": {
        "details": "See {IERC165-supportsInterface}. Time complexity O(1), guaranteed to always use less than 30 000 gas."
      },
      "symbol()": {
        "details": "See {IERC721Metadata-symbol}."
      },
      "tokenByIndex(uint256)": {
        "details": "See {IERC721Enumerable-tokenByIndex}."
      },
      "tokenOfOwnerByIndex(address,uint256)": {
        "details": "See {IERC721Enumerable-tokenOfOwnerByIndex}."
      },
      "tokenURI(uint256)": {
        "details": "See {IERC721Metadata-tokenURI}."
      },
      "totalSupply()": {
        "details": "See {IERC721Enumerable-totalSupply}."
      },
      "transferFrom(address,address,uint256)": {
        "details": "See {IERC721-transferFrom}."
      }
    },
    "version": 1
  },
  "userdoc": {
    "kind": "user",
    "methods": {},
    "version": 1
  }
}